:020000040800F2
:10000000C0060020B10100083F07000805040008F1
:100010003D0700086B0200087D0900080000000091
:10002000000000000000000000000000ED070008D4
:100030006D0200080000000041070008EF070008FB
:10004000CB010008CB010008CB010008CB01000860
:10005000CB010008CB010008CB010008CB01000850
:10006000CB010008CB010008CB010008CB01000840
:10007000CB010008CB010008CB010008CB01000830
:10008000CB010008CB010008CB010008CB01000820
:10009000CB010008CB010008CB010008CB01000810
:1000A000CB010008CB010008CB010008CB01000800
:1000B000CB010008CB010008CB010008CB010008F0
:1000C000CB010008CB010008CB010008CB010008E0
:1000D000CB010008CB010008CB010008CB010008D0
:1000E000CB010008CB010008CB010008CB010008C0
:1000F000CB010008CB010008CB010008CB010008B0
:10010000CB010008CB010008CB010008CB0100089F
:10011000CB010008CB010008CB010008CB0100088F
:10012000CB010008CB010008CB010008CB0100087F
:1001300000F002F800F02CF80AA090E8000C8244CD
:100140008344AAF10107DA4501D100F021F8AFF2AA
:10015000090EBAE80F0013F0010F18BFFB1A43F0A5
:1001600001031847EC120000FC12000000230024D9
:1001700000250026103A28BF78C1FBD8520728BFB7
:1001800030C148BF0B6070471FB51FBD10B510BD13
:1001900000F031F81146FFF7F7FF00F019FC00F00E
:1001A0004FF803B4FFF7F2FF03BC00F057F800006C
:1001B0000948804709480047FEE7FEE7FEE7FEE7FB
:1001C000FEE7FEE7FEE7FEE7FEE7FEE70448054937
:1001D000054A064B70470000F1070008310100088E
:1001E000C0000020C0060020C0020020C002002085
:1001F000704770477047754600F02CF8AE46050012
:100200006946534620F00700854618B020B5FFF731
:10021000DDFFBDE820404FF000064FF000074FF033
:1002200000084FF0000BAC46ACE8C009ACE8C009D0
:10023000ACE8C009ACE8C00921F007018D46704761
:1002400010B50446AFF300802046BDE81040FFF72C
:10025000A8BF000000487047000000200149182096
:10026000ABBEFEE7260002007047FEE770472DE9AF
:10027000F04391F8039009F00F085FEAC96344BFA7
:100280008B7848EA030809880B0621D0046800250A
:100290004FF0010E4FF00F0C0027082F17D00EFA69
:1002A00007F30B4210D00CFA05F208FA05F624EA1F
:1002B000020242EA0604B9F1480F04D0B9F1280F4E
:1002C00008BF436100E0036104350137E5E70460DE
:1002D000B1F5807F23D3446800254FF4807E4FF032
:1002E0000F0C0027082F19D00EFA07F606EA0102B4
:1002F000B24210D10CFA05F308FA05F224EA03031E
:1003000043EA0204B9F1480F04D0B9F1280F08BF3D
:10031000466100E0066104350137E3E74460BDE86B
:10032000F0830000F0B5194A0028144602F11803C2
:1003300048BF1C46256800F4401784B2C0F303464A
:10034000B7F5401F06D1166825F0706526F0706677
:1003500016600EE0C70206D46FF00F0606EA50469C
:1003600004FA06F602E0032707FA06F6B54345F05D
:10037000706531B16FF00F0101EA504104FA01F1EB
:100380000D43002848BF1A461560F0BD0400014027
:10039000F8B5184C01200121A04710200121A047E9
:1003A000042001210427A0471348144C6D46144E25
:1003B000009004F500602946B04704200021FFF7B3
:1003C000B1FF4FF48060ADF80000204629468DF85B
:1003D0000370B0474FF40070ADF8000018208DF89E
:1003E000030020462946B047BA48294600902046D7
:1003F000B047F8BD5D070008006003100008014029
:100400006F020008FEE70288002942F4806308BFFB
:1004100022F4806303807047828A008B60F3174266
:1004200002EA0100401AB0FA80F0400970470288E1
:10043000002942F0010308BF22F001030380704746
:100440000288002942F4807308BF22F4807303807D
:1004500070470288002942F4007308BF22F4007339
:100460000380704782B00022019200920090080F32
:10047000019021F07F40019911B10099143102E0FF
:100480000099000C1831009100990968084018BFC4
:10049000012002B07047000070B586B0044686881F
:1004A00001A80D4600F066F92748039926F03F029F
:1004B000B1FBF0F0254B0243A280228822F001021A
:1004C00022802A689A4208D85200B1FBF2F14FF616
:1004D000FC72114208BF04211FE0EB884BF6FF7647
:1004E000B34204D102EB4202B1FBF2F105E0192361
:1004F0005A43B1FBF2F141F480414FF496725043FC
:100500004FF47A72B0FBF2F00A466FF31F32B2FA80
:1005100082F2520911430E4A114301302084A18313
:1005200020884FF6F53140F00100208020880840F7
:10053000A9880843698908432080A8892989084334
:10054000208106B070BD00BF40420F00A0860100B0
:100550000080FFFF2DE9F047764E1C461546884681
:10056000814630464FF40031FFF77CFF0028F8D178
:1005700030460121FFF764FF564F30463946FFF7FA
:100580004BFF0028F9D04FEA49005FFA80F9304666
:1005900049460022BA4600F04EF84F4F30463946E1
:1005A000FFF73AFF0028F9D03046414600F04BF8FB
:1005B000023730463946FFF72FFF0028F9D0304682
:1005C0000121FFF73DFF574630463946FFF724FF2C
:1005D0000028F9D030464946012200F02CF80137B6
:1005E00030463946FFF718FF0028F9D03046012180
:1005F000FFF709FF0AF13F07E0B2012801D040B937
:1006000014E030460021FFF7FEFE30460121FFF7DF
:1006100020FF30463946FFF7FFFE0028F9D030466C
:1006200000F006F825F8020B013CE5E7BDE8F0878D
:10063000008AC0B2704741F00103002A08BF01F0F0
:10064000FE03038270470182704700002DE9F041EC
:10065000384C90460E46074620464FF40031FFF7CF
:1006600001FF0028F8D120460121FFF7E9FE194DCE
:1006700020462946FFF7D0FE0028F9D07800C1B205
:1006800020460022FFF7D7FF134F20463946FFF7D9
:10069000C3FE0028F9D020463146FFF7D4FFBE1C28
:1006A00020463146FFF7B8FE0028F9D020464146E3
:1006B000FFF7C9FF20463146FFF7AEFE0028F9D00C
:1006C00020460021FFF79FFE20460121BDE8F041B2
:1006D000FFF7BFBE010003008200070010B586B01F
:1006E0000820012100F03AF84FF40010012100F039
:1006F00029F80F480F4C059004F5384005A9FFF77D
:10070000B6FD4FF48040ADF810004FF080600390CC
:10071000094801A902904CF2503001902046FFF7A1
:10072000BBFE20460121FFF782FE06B010BD00BFD0
:10073000C000031C005400400000FFBFFEE77047EC
:1007400070470000044A002911680CBF21EA00002C
:1007500008431060704700BF1C100240044A002983
:1007600011680CBF21EA000008431060704700BF09
:100770001810024010B518490A6802F00C03174A15
:10078000082B0BD10B68C3F383430C680233E403DB
:1007900002D50C68A40300D5114A5A4302600B68C5
:1007A000104CC3F30313E35CDA4042600B68C3F3FD
:1007B0000223E35C22FA03F383600B68C3F3C223D2
:1007C000E35CDA40C2600968074BC1F38131595CD0
:1007D000B2FBF1F1016110BD0410024000127A0079
:1007E00000093D003E1400083A14000870477047A5
:1007F00082B03648364A016841F001010160416823
:10080000114041600168334A11400160016821F4E0
:1008100080210160416821F4FE0141604FF41F0115
:100820008160002101910091016841F480310160F3
:10083000016801F4003100910199013101910099A1
:1008400019B90199B1F5A06FF2D10168890354BFBC
:100850000021012100910099012930D11E490A6827
:1008600042F010020A600A6822F007020A600A6871
:1008700042F002020A60416841604168416041689B
:1008800041F480614160416821F47C11416041681C
:1008900041F4E8114160016841F080710160016834
:1008A0008901FCD5416821F003014160416841F0B4
:1008B00002014160416801F00C010829FAD10748A2
:1008C0004FF00061016002B0704700BF00100240AD
:1008D0000000FFF8FFFFF6FE0020024008ED00E0F8
:1008E0000288002942F0010308BF22F001030380BF
:1008F0007047000010B50288B0F1804F0ED0194B40
:1009000098420BD0184B984208D0184B984205D00B
:10091000174B984202D0264B984203D14B8822F0C5
:1009200070021A43134C40F48063A34203D0CB8877
:1009300022F440721A4302808A8882850A880285DE
:100940000D4A02444FEAB222072A07D8012303FACC
:1009500002F212F0E50F1CBF097A018601218182A3
:1009600010BD00BF0004004000080040000C004023
:10097000003401400014004000D4FEBFFEE7000038
:100980001FB54FF400600121FFF7E8FE41F2883007
:1009900002900020064C8DF80C004720019001A920
:1009A0002046FFF7A7FF20460121FFF799FF1FBD53
:1009B000002C014005490022030408BF704701389C
:1009C0000A800B88B3F57A7FFBD3F5E7242C01402E
:1009D000FFF7DEFCFFF7D4FFFFF780FE594C6820DD
:1009E0006B218022A0474FF47A70FFF7E3FF682065
:1009F0006B210022A047682019210722A047682008
:100A00001C210022A04768201B210022A0474F4C38
:100A100004F1480804F1540968203B2142460623AA
:100A2000FFF798FDB4F84800B4F84A1041EA0020F6
:100A300000B200F091FA464D00222B4600F0A4FAD5
:100A4000C4E90601B4F84C00B4F84E1041EA0020A5
:100A500000B200F081FA00222B4600F095FAC4E9BA
:100A60000801B4F85000B4F8521041EA002000B276
:100A700000F072FA00222B4600F086FAC4E90A015F
:100A8000682043214A460623FFF764FD2E49086883
:100A900080F400500860B4F85400B4F8561041EAED
:100AA000002000B200F058FA2A4B00229B4600F0CA
:100AB000FBF804F10C0A05469AE841040F4600F0E1
:100AC0004BFC02460B462846394600F05BFBC4E966
:100AD0000C01B4F85800B4F85A1041EA002000B2F2
:100AE00000F03AFA00225B4600F0DEF80546304698
:100AF0000F4600F031FC02460B462846394600F00E
:100B000041FBC4E90E01B4F85C00B4F85E1041EAA0
:100B1000002000B200F020FA00225B4600F0C4F88A
:100B2000054650460E4600F017FC02460B46284686
:100B3000314600F027FBC4E910014FF47A70FFF74B
:100B400039FF69E74D0600080C10014060000020E5
:100B50000000103F0060604010B591EA030F48BFED
:100B600083F0004300F11683841A71EB030C05D265
:100B7000121943EB0C03001B61EB0C014FEA1154FB
:100B8000A4EB135CDFF81CE11EEA430F18BF9EEADA
:100B9000445F73D021EA045123EA0E0343F4801327
:100BA000DCF1200E32D322FA0CFE10EB0E0023FAF9
:100BB0000CFE41EB0E01CCF1200E03FA0EFE10EB01
:100BC0000E00CCF1200E51F10001B1F5801F32D2A0
:100BD00001EB045112FA0EF2BDE8104058BF704705
:100BE000401C38BF5FEA420218BF7047002814BF9C
:100BF00020F0010041F100014FEA410313F5001F0D
:100C000038BF7047A1F1C04100F0B6BA012A43EBEA
:100C10000302ACF1200CDCF11F0E32BF4FF0000ECE
:100C200023FA0CF310EB030041EB0451B4EB115F1A
:100C3000D0D0A1EB045101F58011490801EB04511A
:100C40005FEA30000ED350F1000038BF12FA0EFEFA
:100C500008D1BDE81040C9E7401C38BF5FEA420236
:100C6000CAD1C3E7BDE810404FEA410313F5001FA6
:100C700038BF7047A1F1C04100F07EBA9EEA445FE0
:100C800008D011EA5E0FBDE8104004BF01F000413A
:100C900000207047BDE8104070B500F01FFA00BF9B
:100CA00064FBBE3E0000E0FF2DE9C04130B4DFF838
:100CB000A0C23CEA111418BF3CEA131400F0EC8007
:100CC0001CEA111481EA030544EAD57418BF1CEA32
:100CD000131500F0C780A4EB050404F17F7404F53C
:100CE00000344FF0004545EAC12145EAC32341EAFB
:100CF000505143EA52534FEAC0204FEAC222994270
:100D000008BF904200F09C804FEA13650FF2401636
:100D1000765D4FEA134506FB05F7C7F1807706FBC2
:100D200007F74FEAD737A7FB03687642A7FB06CE43
:100D3000C8F5803838BFA8F1010807FB08E6A6FB14
:100D4000028C4FF0000EE6FB03CEDCF1000CCEF17E
:100D5000004E38BFAEF1010EA6FB0C584FF0000755
:100D6000E6FB0E87A1FB08C6A0FB07CE16EB0E061E
:100D70004FF0000545F10005E1FB076515F1E04E78
:100D80007EBFA4F580345FEA46066D4116F1800708
:100D900045F100054FEA172747EA05674FEA152591
:100DA0004FEA0666A6F1DE46B6F1805F1FD93846E7
:100DB00005EBC47124F0010C01EB0C11BCF1FE6FCA
:100DC00002D8F0BCBDE8008124425CBF01F5801E62
:100DD0009EEAC47F02D4F0BCBDE80081244238D42E
:100DE000A1F1C041F0BCBDE8004100F0C5B94FEA37
:100DF000D02040EA41504FEAD1214FEAD22242EAC4
:100E000043524FEAD323A7FB028607FB036605FB89
:100E100002661EEA0E0F58BFA6EB0056B6EB005650
:100E20004FEA520E4EEAC37E18EB0E0E56EB530EEF
:100E3000BDD518EB02085E417F1C55F10005B6E7F1
:100E40004FF480154FF000074FF000064FF00008F8
:100E5000ADE701F1C04101F000414FF00000F0BCEE
:100E6000BDE800810CEA131511EA0C1F00D00CE05C
:100E700013EA0C1F00F025804FF0000081EA030107
:100E800001F00041F0BCBDE80081F0BCBDE80041CC
:100E900081EA030100F070B9F0BCBDE8004170B513
:100EA00000F01CF9097EFC3E00F007B84FF000008E
:100EB00081EA030101F00041704781EA030100F07B
:100EC0005BB9F0BCBDE8004122494FF0000070471B
:100ED000FFFDFBF9F7F5F4F2F0EEEDEBE9E8E6E4FF
:100EE000E3E1E0DEDDDBDAD8D7D5D4D3D1D0CFCD86
:100EF000CCCBCAC8C7C6C5C4C2C1C0BFBEBDBCBBBF
:100F0000BAB9B8B7B6B5B4B3B2B1B0AFAEADACABB9
:100F1000AAA9A8A8A7A6A5A4A3A3A2A1A09F9F9E93
:100F20009D9C9C9B9A999998979796959594939345
:100F3000929191908F8F8E8E8D8C8C8B8B8A8989DC
:100F4000888887878685858484838382828181805F
:100F50000000FF070000F87F10F0004248BF404249
:100F6000B0FA80F310FA03F10AD0C3F11D0303F5C0
:100F7000806302EB03524FEA415002EBD1217047EC
:100F80004FF000007047000070B5DFF848C11CEA60
:100F9000111E1EBF1CEA13159EEA0C0F95EA0C0FDA
:100FA00000F06F8081EA03044EEAD47EAE4421EA69
:100FB0004C1123EA4C1341F4801143F48013AEF139
:100FC0007F7EA1FB024CA0FB0365361955EB0C0597
:100FD000A1FB034C4CF10003A0FB021C16EB0C061A
:100FE000654153F10003094218BF46F0010613F4AE
:100FF000007F0BD14FEA03314FEA053041EA15512A
:1010000040EA165034036FF003020AE04FEAC321AE
:101010004FEAC52041EA555140EA5650F4026FF0BC
:10102000020202EB2E4201EB025585EACE710AD094
:101030005FEA440C18BF24F0004450F1000041F175
:10104000000120EAD47040F2FE7C624500D270BDFF
:10105000A84214BF4FF080444FF04044002E08BF18
:101060000024BEF1806FA8BFA1F1C041BDE870406F
:1010700080F2828001F1C04101F000414FF0000098
:1010800070470CEA13159EEA0C0F18BF95EA0C0F77
:1010900006D081EA030E4FF000000EF0004170BD53
:1010A00000F01CF88900013E00F007B800F009B814
:1010B0004FEA430C5FEA5C5C08D081EA030100F070
:1010C0005BB84FEA410C5FEA5C5CF6D102494FF035
:1010D000000070470000FF070000F87F0EF1020ECD
:1010E0002EF0030E5EF8046B364205D4012A43EB62
:1010F000030515F5001F12D8012841EB010C1CF562
:10110000001F0CD80ED14FEAD17C0CEB4C0C0CF12B
:10111000020C15F5001F08BF4CEBD37C04E04FF028
:10112000080C01E04FEAD37C0CEB4C0526FA05F6DF
:1011300006F00706B6F1040C06D20EEB860CBDE8ED
:1011400070404CF0010C6047DFE80CF0090B020224
:101150004FF00041A1F500214FF0000070BD19468D
:101160001046012851EB010418BFD4F5001484BFC8
:10117000002001F0004170BD0808A0F500114FEA01
:101180003101704710B591EA030F48BF83F0004367
:101190003FF5EAAC841A71EB030C07D28CF0004CDB
:1011A000121943EB0C03001B61EB0C014FEA1154C5
:1011B000A4EB135CDFF89CE11EEA430F18BF9EEA24
:1011C000445F00F0B08021EA045123EA6E035242EA
:1011D000C3EB6E0338BF5B1EDCF1200E25D322FA71
:1011E0000CFE10EB0E0043FA0CFE41EB0E01CCF1AD
:1011F000200E03FA0EFE10EB0E00CCF1200E51F182
:10120000000129D401EB045112FA0EF2BDE810409E
:1012100058BF7047401C1CBFB2F1004F70470028F8
:101220000CBF491C20F00100704712EB020E43EB8B
:10123000030218BF4FF0010E4EEA4202ACF1200C3F
:10124000DCF11E0E54D943FA0CFE10EB0E00CCF16B
:101250001E0E51F1FF31D5D50EF1010E12FA0EFE20
:10126000404141EB010101EB445C5FEA5C5C10D959
:1012700001EB045110EBDE7038BFBEF1004FBDE84A
:10128000104018BF704700280CBF491C20F0010017
:10129000704730D24FEAD42C24F4006411F50011C9
:1012A0001BD0B1FA81F20B3AA41AA41ED2F120038A
:1012B000914030FA03F31943904001EBCC7101EBFC
:1012C0000451002CBDE81040A8BF704701F1C04197
:1012D00001F000414FF000007047B0FA80F310FABF
:1012E00003F100D110BDE41A173C4805C90AE4E730
:1012F00001EB045110BD49104FEA300001EB0451DD
:10130000BDE8104002E04FF0000170474A0008BFFE
:101310000042F8D0B2F5001F28BF704701F000412D
:101320004FF0000070479EEA445F07D011EA5E0F5D
:10133000BDE8104004BF002100207047BDE8104008
:1013400070B5FFF7CBFE00BF40DFF63E104683F0DE
:10135000004170470000E0FF43004FEAD30C4FEA22
:101360003C0C43401FBF40070CF1605113F0FE4F8F
:1013700070471CF0006F03D10CF000410020704753
:101380000CF0004343EA507040EACC0010B500F086
:101390000EF800BF000000924FEA0001FFF7ECBE1C
:1013A0004FF00041A1F500214FF0000070470EF111
:1013B000020E2EF0030E5EF8044B244204D44FEAD2
:1013C0004102B2F17F4F11D84FEA4003B3F17F4F92
:1013D0000CD80ED14FEAD07C0CEB4C0C0CF1020C6B
:1013E000B2F17F4F08BF4CEBD17C04E04FF0080C0A
:1013F00001E04FEAD17C0CEB4C0324FA03F404F037
:101400000704B4F1040C06D20EEB840CBDE81040C6
:101410004CF0010C6047DFE80CF0070802024FF0C7
:101420000040A0F5800010BD0846420018BFD2F170
:10143000807288BF00F0004010BD02040608000062
:10144000000001020304010203040607080900006A
:101450006014000800000020C00600006C010008B5
:0400000508000131BD
:00000001FF
