:020000040800F2
:10000000E80600208901000891010008930100081A
:100010009501000897010008990100080000000000
:100020000000000000000000000000009B0100082C
:100030009D010008000000009F010008AD130008AA
:10004000A3010008A3010008A3010008A301000800
:10005000A3010008A3010008A3010008A3010008F0
:10006000A3010008A3010008A3010008A3010008E0
:10007000A3010008A3010008A30100086D04000803
:10008000A3010008A3010008A3010008A3010008C0
:10009000A3010008A3010008A3010008A3010008B0
:1000A000A30100081D140008A3010008A301000813
:1000B000A3010008A3010008A3010008A301000890
:1000C000A3010008A3010008A3010008A301000880
:1000D000A3010008ED170008A3010008A301000810
:1000E000A3010008A3010008A301000800F002F822
:1000F00000F03AF80AA090E8000C82448344AAF188
:100100000107DA4501D100F02FF8AFF2090EBAE885
:100110000F0013F0010F18BFFB1A43F0010318473B
:10012000BC280000DC280000103A24BF78C878C141
:10013000FAD8520724BF30C830C144BF04680C60ED
:10014000704700000023002400250026103A28BF35
:1001500078C1FBD8520728BF30C148BF0B60704739
:100160001FB51FBD10B510BD00F044F81146FFF7D4
:10017000F7FF01F083FC00F062F803B4FFF7F2FF31
:1001800003BC00F065F800000948804709480047B3
:10019000FEE7FEE7FEE7FEE7FEE7FEE7FEE7FEE737
:1001A000FEE7FEE704480549054A064B7047000094
:1001B000BD130008ED000008E8000020E80600205C
:1001C000E8020020E802002070477047704710B531
:1001D00000F008F8006810BD10B5044600F002F801
:1001E000046010BD00487047880000200048704738
:1001F000880000207546FFF7F9FFAE460500694606
:10020000534620F00700854618B020B5FFF7CAFF17
:10021000BDE820404FF000064FF000074FF0000807
:100220004FF0000B21F00701AC46ACE8C009ACE888
:10023000C009ACE8C009ACE8C0098D46704710B5EC
:100240000446AFF300802046BDE81040FFF795BF9D
:1002500001491820ABBEFEE72600020070470000EF
:1002600000B591B00121480200F01AFF01210846B3
:1002700000F0F6FE4FF4404000F0E6FE012004904E
:10028000002003900B90234802904FF48060089068
:1002900000200690202009901F48019080150790AB
:1002A000002005904FF400500A9001A91B4800F06F
:1002B00030FB01208DF8350000200F904FF46020B6
:1002C0000E9000200C9001208DF840008DF8340035
:1002D00007230122002110484C3800F05FF801216B
:1002E0000D484C3800F027F80CA90B484C3800F0AA
:1002F0002DF80121094800F0E1FA012106484C38A7
:1003000000F00EF8012104484C3800F0A3F811B0B9
:1003100000BD0000320000204C24014008000240D3
:1003200021B1826842F00102826003E0826822F01B
:1003300001028260704721B1826842F4807282605B
:1003400003E0826822F480728260704730B5024612
:100350000020002350680F4C20400D790C6844EABF
:1003600005242043506090680B4C2040D1E9025492
:100370002C434D7944EA450420439060D06A20F430
:1003800070000C7C641EE4B2234340EA0350D06248
:1003900030BD0000FFFEF0FFFDF7F1FFF0B50446B1
:1003A0000D4600200021092D11DDE068A5F10A06A7
:1003B00006EB4607072606FA07F18843A5F10A0669
:1003C00006EB460603FA06F10843E0600CE02069FC
:1003D00005EB4507072606FA07F1884305EB4506B6
:1003E00003FA06F108432061072A0FDA606B561EF4
:1003F00006EB86071F2606FA07F18843561E06EB12
:10040000860605FA06F10843606322E00D2A0FDA3A
:10041000206BD61F06EB86071F2606FA07F18843D6
:10042000D61F06EB860605FA06F10843206310E0A6
:10043000E06AA2F10D0606EB86071F2606FA07F111
:100440008843A2F10D0606EB860605FA06F108437D
:10045000E062F0BD21B1826842F4A002826003E054
:10046000826822F4A00282607047000070B54FF4E9
:10047000003000F02FFA01283ED1F74800782A28F2
:100480000DD1F54800792A2809D1F3484078F2497E
:1004900089780844C0B2F049C97888427DD0EE48D6
:1004A0004078ED4989780844EB49C9780844EA491D
:1004B00009790844C0B2E849097888421DD1E64864
:1004C0004078E6490870E448807800094870E248BE
:1004D00080780007C00EE049C97840EAD110DF49B2
:1004E0008870DD48C07800F01F00C870DA480079D5
:1004F00008710120DA490870CBE1D74800782A2832
:1005000036D1D548407888BBD348807870BBD24874
:10051000C07858BBD048007940BBD2480078D24957
:100520004870D0488078C0F34300CE49497801F044
:100530000F0140EA0110CC498870CA48C07800F029
:100540001F00C849897801F0010140EAC110C6497D
:10055000C870C44800790871002404E0C249085DED
:1005600001F074FA641C052CF8DB92E100E014E061
:100570004520BD494870B84840788870B6488078B2
:10058000C8702A200871002404E0B749085D01F012
:100590005DFA641C052CF8DB7BE1AF48407841280C
:1005A00006D042286DD04E287ED054287DD1D4E08C
:1005B000A9488078432828D04F284DD14FF40051C6
:1005C000AA4800F099FAA948C068C0F34030A84989
:1005D00008700846007810B1012814D109E04120C4
:1005E000A14948704F2088702A20C87000200871E7
:1005F00009E041209C494870FE2088702A20C8707C
:100600000020087100BF00BF30E04FF40051974850
:1006100000F074FA9548C068C0F3403094490870FF
:100620000846007810B1012814D109E041208E4914
:100630004870FD2088702A20C8700020087109E0E9
:10064000412089494870432088702A20C8700020C2
:10065000087100BF00BF09E0412083494870FF20B6
:1006600088702A20C8700020087100BF00BF0024D5
:1006700004E07D49085D01F0E9F9641C052CF8DB14
:1006800006E17548807843282BD04F2850D14FF48D
:100690008041764800F030FA7448C068C0F380307A
:1006A00073490870084601E0B3E0C8E0007810B173
:1006B000012814D109E042206B4948704F2088700E
:1006C0002A20C8700020087109E04220664948705D
:1006D000FE2088702A20C8700020087100BF00BF6B
:1006E00030E04FF48041614800F008FA5F48C0688C
:1006F000C0F380305E4908700846007810B10128C8
:1007000014D109E0422058494870FD2088702A2001
:10071000C8700020087109E0422053494870432006
:1007200088702A20C8700020087100BF00BF09E04F
:1007300042204D494870FF2088702A20C870002050
:10074000087100BF00BF002404E04749085D01F0C4
:100750007DF9641C052CF8DB9AE04648007890BBD4
:100760003D48807847282FD154203F4948704FF0AA
:100770007E514148006801F0EFFE044601F0AEFFF3
:10078000394988708978642201FB02F001F0C6FFC4
:1007900005463A493848006801F0D8FF0646294620
:1007A00002F0A0F8044601F099FF2F49C8702A20F2
:1007B0000871002404E02C49085D01F047F9641C2D
:1007C000052CF8DB12E012E0542027494870FF2086
:1007D0008870C8702A200871002404E02249085D4E
:1007E00001F034F9641C052CF8DB00BF10E0542044
:1007F0001D494870FD208870C8702A2008710024A7
:1008000004E01949085D01F021F9641C052CF8DBAE
:100810003EE0114880784E2807D1134948704F2098
:1008200088704B20C8702A200871002404E00E490B
:10083000085D01F00BF9641C052CF8DB28E045206D
:100840000949487004484078887003488078C87027
:100850002A200871002418E02C000020210000202C
:10086000260000201C000020000000200010014095
:1008700005000020190000200C0000200000C842E4
:100880000649085D01F0E2F8641C052CF8DB00BFA6
:1008900000BF4FF4003000F003F870BD00000020EE
:1008A00000F0805111B10349086001E0024948603D
:1008B00070470000040402400000024021B10268B9
:1008C00042F00102026004E002684FF6FE731A4033
:1008D0000260704701460020002201F0805313B1EE
:1008E000054B1A6801E0054B1A6802EA01030BB1D7
:1008F000012000E000207047000402400000024098
:100900001AB103680B43036002E003688B43036082
:10091000704710B50022026847F6F0739A430C6ADC
:100920008B6823430C6923434C6923438C6923431D
:10093000CC6923434C6A23438C6A23431A430260E5
:10094000CB6843600B6883604B68C36010BD416037
:1009500070472DE9F04102460025002600200023C3
:100960000024002791F803C00CF00F0591F803C094
:100970000CF0100CBCF1000F03D091F802C04CEA4F
:10098000050591F800C0BCF1000F31D014680020BB
:100990002BE04FF0010C0CFA00F3B1F800C00CEAA8
:1009A00003069E4220D183004FF00F0C0CFA03F790
:1009B000BC4305FA03FC4CEA040491F803C0BCF103
:1009C000280F06D14FF0010C0CFA00FCC2F814C03D
:1009D0000AE091F803C0BCF1480F05D14FF0010CBB
:1009E0000CFA00FCC2F810C0401C0828D1D31460D7
:1009F000B1F800C0BCF1FF0F34DD546800202EE0D8
:100A000000F1080C4FF0010808FA0CF3B1F800C02F
:100A10000CEA03069E4221D183004FF00F0C0CFA22
:100A200003F7BC4305FA03FC4CEA040491F803C045
:100A3000BCF1280F05D100F1080C08FA0CF8C2F837
:100A4000148091F803C0BCF1480F07D100F1080CE5
:100A50004FF0010808FA0CF8C2F81080401C082872
:100A6000CED35460BDE8F081F0B50A4600230024DF
:100A70000021002500F00046B6F1004F02D11D4EC6
:100A8000F16901E01B4E7168C0F3034583B200F4C5
:100A90004016B6F5401F08D121F07061154E7668FA
:100AA00026F07066134F7E6012E000F48016B6F5F3
:100AB000801F06D1032606FA05F4A14341F07061B8
:100AC00006E0460D360103FA06F6B14341F07061C7
:100AD00022B1460D360103FA06F6314300F0004616
:100AE000B6F1004F02D1034EF16101E0014E716099
:100AF000F0BD000000000140416170470161704796
:100B000008B50121084600F0CBFA0121102000F0C1
:100B1000C7FA0121042000F0C3FA0121082000F0E7
:100B2000BFFA10208DF803004FF4C040ADF800006C
:100B300003208DF8020069462948FFF70AFF0021CB
:100B40000420FFF791FF04208DF803000002ADF8A8
:100B5000000069462348FFF7FCFE18208DF80300CB
:100B60004FF40070ADF8000069461E48FFF7F1FE33
:100B70000120ADF8000000208DF8030003208DF85F
:100B8000020069461748FFF7E4FE4FF42040ADF835
:100B9000000018208DF8030003208DF8020069463C
:100BA0001148FFF7D6FE4FF48040ADF80000042056
:100BB0008DF8030003208DF8020069460A48FFF70C
:100BC000C8FE4FF48050ADF8000010208DF80300EF
:100BD00003208DF8020069460348FFF7BAFE08BDFE
:100BE0000010014000080140000C014021B10288C2
:100BF00042F48062028004E002884FF6FF331A401C
:100C00000280704770B502460024002500230020B2
:100C1000958A138B1B0445EA030626F07F4404EAF9
:100C200001068E4201D1012000E0002070BD21B1FB
:100C3000028842F00102028004E002884FF6FE734F
:100C40001A400280704700002DE9F04104460F462B
:100C500015461E4600BF4FF40031334800F0DEF861
:100C60000028F8D10121304800F0C0F800BF2F491A
:100C70002D48FFF7C7FF0028F9D06006010E0022BB
:100C8000294800F063F900BF29492748FFF7BAFF58
:100C90000028F9D03946244800F061F900BF244902
:100CA000891C2148FFF7AEFF0028F8D039461E48BE
:100CB00000F055F900BF1E49891C1B48FFF7A2FF31
:100CC0000028F8D00121184800F090F800BF17491B
:100CD0001548FFF797FF0028F9D06006010E0122A2
:100CE000114800F033F900BF1049491C0E48FFF7C6
:100CF00089FF0028F8D001210B48FFF777FF0FE0AC
:100D000000BF0A493F310848FFF77CFF0028F8D0B0
:100D1000054800F017F92870701EC6B2681C054619
:100D2000002EEDDCBDE8F08100540040010003001E
:100D3000820007002DE9F0410546884614461E460C
:100D400000BF4FF40031264800F068F80028F8D1C1
:100D50000121234800F04AF800BF22492048FFF74C
:100D600051FF0028F9D06806010E00221C4800F04F
:100D7000EDF800BF1C491A48FFF744FF0028F9D0DE
:100D80004146174800F0EBF800BF1749891C14488A
:100D9000FFF738FF0028F8D04146114800F0DFF88F
:100DA00000BF1149891C0E48FFF72CFF0028F8D01E
:100DB00000270DE021780A4800F0D1F800BF0A4969
:100DC000891C0748FFF71EFF0028F8D0641C7F1C11
:100DD000B742EFDB0121024800F014F8BDE8F081D2
:100DE00000540040010003008200070021B1028886
:100DF00042F48072028004E002884FF6FF631A40DA
:100E00000280704721B1028842F40072028004E03F
:100E100002884FF6FF531A40028070470CB5024615
:100E2000002000230193009300920B0F019321F007
:100E30007F41019B1BB1009B1433009303E0090C1D
:100E4000009B18330093009B1B680B400BB10120E3
:100E500000E000200CBD00002DE9F04385B0044601
:100E60000D460026B1460427DFF8CC80A6884FF651
:100E7000C0700640684600F023F9DDF808802F486E
:100E8000B8FBF0F01FFA80F946EA0906A680208830
:100E90004FF6FE71084020800026294928688842C4
:100EA0000CD828684000B8FBF0F087B2042F00DAB5
:100EB00004273E4309F10100208427E0E8884BF62F
:100EC000FF71884206D1286800EB4000B8FBF0F0C3
:100ED00087B209E0286800EBC00101EB0010B8FB05
:100EE000F0F087B247F48047C7F30B0008B947F02A
:100EF000010747F4004006434FF4967009FB00F0E9
:100F00004FF47A7190FBF1F0401C2084A683208876
:100F100040F00100208026884FF6F5300640A88872
:100F20006989084306432680A889298908432081C6
:100F300005B0BDE8F083000000127A0040420F00C7
:100F4000A08601000146088AC0B2704712B141F084
:100F5000010102E04FF6FE731940018270470182E1
:100F60007047000000B585B00121082000F098F816
:100F70000121480500F084F8C020ADF810001C20C5
:100F80008DF8130003208DF8120004A91048FFF714
:100F9000E0FC0020ADF804004BF6FF70ADF8060051
:100FA0000020ADF808004FF48060ADF80A000001A1
:100FB000ADF80C004CF25030009069460548FFF740
:100FC0004BFF01210348FFF732FE05B000BD0000D2
:100FD000000C01400054004070B5002100230F2296
:100FE000C47804B3154C246804F4E064C4F5E064E8
:100FF000210AC1F10403CA40447804FA03F1847859
:101000001440214309010E4C0678A155047804F0E0
:101010001F050124AC4005786D11AD0005F1E025F8
:10102000C5F8004109E0047804F01F050124AC4034
:10103000044D0678761145F8264070BD0CED00E0B1
:1010400000E400E080E100E001460020034A50682F
:1010500020F44040084350607047000000100240F8
:1010600029B1064A52690243044B5A6104E0034A1B
:1010700052698243014B5A617047000000100240E0
:1010800029B1064AD2690243044BDA6104E0034AFB
:10109000D2698243014BDA617047000000100240C0
:1010A00029B1064A92690243044B9A6104E0034A5B
:1010B00092698243014B9A61704700000010024020
:1010C00030B500210022002400232D4D6D6805F06D
:1010D0000C0121B1042905D0082923D105E0294DAF
:1010E000056022E0274D05601FE0254D6D6805F481
:1010F0007012234D6D6805F48034022505EB924291
:101100001CB9214D554305600BE01D4D6D6805F47C
:1011100000351DB11C4D5543056002E0194D554386
:10112000056002E0174D056000BF00BF144D6D68FB
:1011300005F0F0010909154D6B5C0568DD4045605F
:101140000F4D6D6805F4E061090A104D6B5C456850
:10115000DD4085600A4D6D6805F46051C90A0B4D8C
:101160006B5C4568DD40C560054D6D6805F4404128
:10117000890B074D6B5CC568B5FBF3F5056130BDA8
:101180000010024000127A0000093D0038000020E3
:101190004800002021B1028842F04002028004E0B1
:1011A00002884FF6BF731A40028070470246002043
:1011B00013890B400BB1012000E0002070478181B2
:1011C000704710B50022028802F441520B884C8807
:1011D00023438C882343CC8823430C8923434C89A5
:1011E00023438C892343CC8923431A430280838B76
:1011F0004FF2FF74234083830B8A038210BD21B119
:10120000828842F00402828004E082884FF6FB73F9
:101210001A4082807047000070B504460D464FF4B6
:1012200080511348FFF768FC00BF02211148FFF707
:10123000BDFF0028F9D029460E48FFF7C0FF00BFC8
:1012400080210C48FFF7B2FF0128F9D02146094858
:10125000FFF7B5FF00BF80210648FFF7A7FF012871
:10126000F9D04FF480510248FFF748FC70BD0000F0
:10127000000C01400038004010B501218803FFF741
:10128000FFFE30200D498881012008810220C8809E
:10129000002088800880C8814FF4827048804FF415
:1012A000007048810648FFF78CFF00210448FFF7D3
:1012B000A6FF01210248FFF76DFF10BD740000205A
:1012C0000038004010B500F001F810BD0CB500204A
:1012D000019000903348006840F480303149086044
:1012E00000BF3048006800F4003000900198401CB6
:1012F0000190009818B90198B0F5A06FF1D1294874
:10130000006800F4003010B10120009001E00020DE
:1013100000900098012843D12348006840F0100055
:10132000214908600846006820F007000860084668
:10133000006840F0020008601A4840681949486097
:101340000846406848600846406840F4806048604D
:101350000846406820F47C1048600846406840F425
:10136000E81048600846006840F08070086000BFE0
:101370000C48006800F000700028F9D00948406867
:1013800020F00300074948600846406840F002002A
:10139000486000BF0348406800F00C000828F9D1FD
:1013A0000CBD00000010024000200240024800680E
:1013B000401C0149086070473400002010B51348F4
:1013C000006840F001001149086008464068104973
:1013D00008400E494860084600680E4908400B491D
:1013E00008600846006820F48020086008464068CD
:1013F00020F4FE0048604FF41F008860FFF762FF92
:101400004FF000600449086010BD00000010024069
:101410000000FFF8FFFFF6FE08ED00E02DE9F047C1
:101420000121674800F0F5F801287DD16548008862
:1014300000EB4000642100FB01F4E11704EB1151C3
:10144000081301F06BF96049604A127841F82200F4
:1014500008465E4A127850F822105D48006801F094
:1014600019F85B49086059480078401C57490870D2
:10147000084600780A2857DB002008705549544870
:10148000006801F069F8544908600020534A106070
:10149000506000251EE04C4850F825104E4800686A
:1014A00001F020FA8146484850F825104A48006863
:1014B00001F018FA8246494601F048F9064600F064
:1014C000BDFF074645480CC8384600F04BFB434A71
:1014D00003C26D1C0A2DDEDB404903C900F01CFB72
:1014E000054600223E4B00F0F1FB3C4A03C20022BD
:1014F0003C4B3A4903C900F041FD03D200203A4970
:10150000087002E001203849087000203049086066
:1015100036493148006801F019F9054601F0DEF856
:1015200084B20821002000E044E0FFF775FE0721A7
:101530000020FFF771FE06210020FFF76DFE052158
:101540000020FFF769FE4FF47A7094FBF0F0284911
:101550000D5C04212846FFF75FFE4FF47A7094FB80
:10156000F0F100FB114084B2642094FBF0F02049BC
:10157000085C40F0800503212846FFF74DFE6420FB
:1015800094FBF0F100FB114084B20A2094FBF0F0D0
:1015900017490D5C02212846FFF73EFE0A2094FB06
:1015A000F0F100FB114012490D5C01212846FFF7C4
:1015B00033FE00BF0121024800F01CF8BDE8F087AF
:1015C000002C0140320000204C00002018000020B8
:1015D00008000020000020410C0000201000002026
:1015E0000000244000000840190000200000C8420C
:1015F000CE290008CA430282704721B1028842F016
:101600000102028004E002884FF6FE731A40028055
:10161000704730B50246002000230024158A05EAF1
:101620000103958905EA010413B10CB1012000E022
:10163000002030BD1AB183890B43838102E0838986
:101640008B43838170470000002202881D4B984223
:101650000ED01D4B98420BD0B0F1804F08D01B4BE1
:10166000984205D01A4B984202D01A4B984204D1A6
:101670004FF68F731A404B881A43174B984207D086
:10168000164B984204D04FF6FF431A40CB881A43BA
:1016900002808B8883850B8803850A4B98420BD088
:1016A000094B984208D00E4B984205D00D4B9842FA
:1016B00002D00D4B984201D10B7A0386012383821D
:1016C00070470000002C014000340140000400403D
:1016D00000080040000C00400010004000140040D2
:1016E00000400140004401400048014000B591B075
:1016F00001210846FFF7B4FC052008900020079060
:101700000F903748069000200C9080200A902020EF
:101710000D903448059000200B9009904FF44050F4
:101720000E9005A93048FFF7F4F8012202212E4857
:10173000FFF7E6F80F208DF8400004208DF84100F7
:1017400000208DF8420001208DF8430010A8FFF71B
:1017500043FC012144F20100FFF7A2FC4FF41650B4
:1017600001900020ADF80800ADF80A00ADF80C00BB
:10177000ADF810000C20ADF80E0001A91948001FAB
:1017800000F0AEF825208DF8400005208DF84100CE
:1017900000208DF8420001208DF8430010A8FFF7CB
:1017A0001BFC40F226610F48001F00F043F80122A5
:1017B00040210C48001F00F052F80A480830008809
:1017C00040F0100007490831088001210648FFF762
:1017D00075F801210348001F00F035F811B000BD75
:1017E0002C000020043801405800024010B540F29F
:1017F00024410D4800F049F801280BD100210B4885
:10180000FFF75CF805210948FFF7A1F80121074817
:10181000FFF754F804480088054908700248001D85
:101820000088087010BD00000038014058000240D8
:101830000500002001F40072B2F5007F00D100BF66
:10184000CA430280704721B1828942F400528281EA
:1018500004E082894DF6FF731A40828170471AB105
:10186000838A0B43838202E0838A8B43838270479F
:1018700002460020B1F5007F00D100BF13880B4065
:101880000BB1012000E00020704770B50246002433
:1018900000230025002040F66A16B14200D100BFA7
:1018A000C1F3421501F01F03012606FA03F3012DCF
:1018B00002D19689334006E0022D02D1168A3340C8
:1018C00001E0968A33400C12012606FA04F41688C9
:1018D000344013B10CB1012000E0002070BD0000C5
:1018E0002DE9F04786B005460E460024A24600BF0B
:1018F000A1460027B08900B100BF2F462C8A4CF6C4
:10190000FF700440F08804432C82AC894EF6F3103B
:101910000440B08831890843718908430443AC818D
:10192000AC8A4FF6FF400440B0890443AC8201A862
:10193000FFF7C6FB1F48874202D1DDF810A001E087
:10194000DDF80CA0A88900F4004040B10AEBCA0001
:1019500000EB0A1031684900B0FBF1F807E00AEB30
:10196000CA0000EB0A1031688900B0FBF1F864206E
:10197000B8FBF0F004012009642101FB1089A8895B
:1019800000F4004040B1322000EBC900B0FBF1F0A0
:1019900000F00700044308E0322000EB0910642146
:1019A000B0FBF1F000F00F0004432C8106B0BDE85D
:1019B000F087000000380140C1F3080282807047C0
:1019C0001FB50121C802FFF76BFB0020ADF8060030
:1019D000ADF8020041F28830ADF804004720ADF8C0
:1019E000000000208DF8080069460E48FFF72CFE25
:1019F00019208DF80C0007208DF80D0000208DF8BF
:101A00000E0001208DF80F0003A8FFF7E5FA012270
:101A100011460448FFF70EFE01210248FFF7EDFDD5
:101A20001FBD0000002C014008E00021064A118083
:101A300000BF05490988B1F57A7FFADB011EA0F1E4
:101A4000010290B2F1D17047242C014010B5044638
:101A500000BF80210848FFF70BFF0028F9D021467E
:101A60000548FFF7A9FF00BF40210348FFF700FF2B
:101A70000028F9D010BD000000380140FFF740F801
:101A8000FFF79EFFFFF732FEFEF7EAFBFFF76AFA69
:101A9000FFF7F2FB0C210120FFF7BEFB0A2100201B
:101AA000FFF7BAFB0B210720FFF7B6FB0921002047
:101AB000FFF7B2FB0F210020FFF7AEFB21E005236B
:101AC000104A00215020FFF7BFF80F49086000219D
:101AD0000E48FFF797F901210C48FFF793F90C48DE
:101AE000007801280DD10020094908700523094A12
:101AF00000215020FFF71EF9034908600A20FFF774
:101B000093FFDCE71C000020280000200054004068
:101B100026000020210000202DE9F04106460F4656
:101B200000F0BCFA041E0D4618BF0120284320F027
:101B30000040C0F17F6000F1E040C00F0ED0301CCB
:101B400018BF0120384320F00040C0F17F6000F151
:101B5000E040C00F04BF0120FEF73EFB20462946AF
:101B6000BDE8F08110B591EA030F48BF83F0004350
:101B700000F18283841A71EB030C05D2121943EB36
:101B80000C03001B61EB0C01DFF824E14FEA115458
:101B9000A4EB135C1EEA430F18BF9EEA445F73D0A8
:101BA00023EA0E03DCF1200E21EA045143F48013F2
:101BB00032D322FA0CFE10EB0E0023FA0CFE41EB9E
:101BC0000E01CCF1200E03FA0EFE10EB0E0051F1C7
:101BD0000001B1F5801FCCF1200E32D201EB04518F
:101BE00012FA0EF2BDE8104058BF7047401C38BFD3
:101BF0005FEA420218BF7047002814BF20F00100BE
:101C000041F100014FEA410313F5001F38BF70474F
:101C1000A1F1C04100F03CBA012A43EB0302ACF150
:101C2000200CDCF11F0E32BF4FF0000E23FA0CF334
:101C300010EB030041EB0451B4EB115FD0D0A1EBEA
:101C4000045101F5801149085FEA300001EB0451AD
:101C50000ED350F1000038BF12FA0EFE08D1BDE8D5
:101C60001040C9E7401C38BF5FEA4202CAD1C3E74F
:101C7000BDE810404FEA410313F5001F38BF70471D
:101C8000A1F1C04100F004BA9EEA445F08D011EA15
:101C90005E0FBDE8104004BF01F000410020704716
:101CA000BDE8104070B500F0A5F900BF64FBBE3E72
:101CB0000000E0FF491058BFC1F140415B1058BF20
:101CC000C3F140438B42EFF3008070472DE9C041E0
:101CD00030B4DFF8A0C23CEA111418BF3CEA131478
:101CE00000F0EC8081EA03051CEA111444EAD57483
:101CF00018BF1CEA131500F0C780A4EB05044FF0D1
:101D0000004545EAC12145EAC32341EA505143EA6F
:101D1000525304F17F74994204F500344FEAC02015
:101D20004FEAC22208BF904200F09C804FEA136540
:101D30000FF24016765D4FEA134506FB05F7C7F133
:101D4000807706FB07F74FEAD737A7FB0368764291
:101D5000C8F58038A7FB06CE38BFA8F1010807FBFD
:101D600008E64FF0000EA6FB028CE6FB03CEDCF18A
:101D7000000CCEF1004E38BFAEF1010EA6FB0C58A0
:101D80004FF000074FF00005E6FB0E87A1FB08C6E9
:101D9000A0FB07CE16EB0E0645F10005E1FB07653B
:101DA00015F1E04E7EBFA4F580345FEA46066D4132
:101DB00016F1800745F100054FEA17274FEA06663E
:101DC00047EA0567A6F1DE46B6F1805F4FEA1525C2
:101DD0001FD9384624F0010C05EBC471BCF1FE6F2D
:101DE00001EB0C1102D8F0BCBDE8008124425CBFBD
:101DF00001F5801E9EEAC47F02D4F0BCBDE80081DC
:101E0000244238D4F0BCA1F1C041BDE8004100F04B
:101E10003FB94FEAD22242EA43524FEAD323A7FB0B
:101E200002864FEAD02040EA415007FB03661EEAD3
:101E30000E0F4FEAD12105FB026658BFA6EB0056F4
:101E4000B6EB00564FEA520E4EEAC37E18EB0E0E6A
:101E500056EB530EBDD518EB02085E417F1C55F1C1
:101E60000005B6E74FF480154FF000074FF000066D
:101E70004FF00008ADE7F0BC4FF0000001F1C041A9
:101E800001F00041BDE8008111EA0C1F0CEA1315B6
:101E900000D00CE013EA0C1F00F025804FF000008A
:101EA000F0BC81EA030101F00041BDE80081F0BC13
:101EB000BDE8004181EA030100F0EAB8F0BCBDE8EA
:101EC000004170B500F096F8097EFC3E00F007B8BE
:101ED00081EA03014FF0000001F00041704781EA00
:101EE000030100F0D5B8F0BCBDE800414FF00000A0
:101EF00021497047FFFDFBF9F7F5F4F2F0EEEDEB49
:101F0000E9E8E6E4E3E1E0DEDDDBDAD8D7D5D4D3F7
:101F1000D1D0CFCDCCCBCAC8C7C6C5C4C2C1C0BF43
:101F2000BEBDBCBBBAB9B8B7B6B5B4B3B2B1B0AF49
:101F3000AEADACABAAA9A8A8A7A6A5A4A3A3A2A12D
:101F4000A09F9F9E9D9C9C9B9A99999897979695E8
:101F500095949393929191908F8F8E8E8D8C8C8B84
:101F60008B8A89898888878786858584848383820C
:101F7000828181800000FF070000F87F51EA030C96
:101F800017D41CF5801F58BFBCF5801F00F10680D8
:101F9000994218BF704708BF9042704707D711F5A4
:101FA000801F58BF13F5801F19D49942704789428A
:101FB00070471CF5801F08D5BCF5801FF7D58B42F4
:101FC00018BF704708BF824270474FF4001C1CEBDB
:101FD000410F38BF1CEB430F01D28B42704770B5E5
:101FE00000F008F8922449004FF000514FF0805360
:101FF000FFF760BE0EF1020E2EF0030E5EF8046BCA
:10200000364205D4012A43EB030515F5001F12D80B
:10201000012841EB010C1CF5001F0CD80ED14FEA32
:10202000D17C15F5001F0CEB4C0C0CF1020C08BF19
:102030004CEBD37C04E04FF0080C01E04FEAD37C7A
:102040000CEB4C0526FA05F606F00706B6F1040C73
:1020500006D20EEB860CBDE870404CF0010C6047D8
:10206000DFE80CF0090B02024FF000414FF00000D6
:10207000A1F5002170BD19461046012851EB01045D
:1020800018BFD4F5001484BF002001F0004170BDDA
:102090000808A0F500114FEA310170472DE9F04121
:1020A00001F5801CBCF5001FC0F2C3804FEA115C33
:1020B00021EA0C510CF1FD0C41F480115FEA5C0C3B
:1020C0000CF5C07C01D3400049413DA4890241EA9E
:1020D000905187028E0E0A0CA45D04FB04F602FBED
:1020E00006F6C6F14046A4FB0662F60D46EA422615
:1020F00006FB06F4A4FB01235242C3F1404338BF60
:102100005B1EA6FB02420024E6FB0324D20B42EA3C
:102110004446A6FB0623A1FB02E2A3FB07E4A418A6
:102120004FF0000252F10002E3FB01426442C2F1AF
:10213000404E38BFAEF1010EA6FB04234FF0000263
:10214000E6FB0E32A2FB03464FF00004B61954F131
:102150000004E2FB0264A1FB06E6A4FB07E816EB21
:1021600008064FF0000858F10008E4FB01687642C9
:10217000C8F1405838BFA8F10108A2FB06E4A3FB50
:1021800008E52D194FF0000454F10004E2FB085457
:10219000A1FB05E6A7FB04E818EB06084FF00006D4
:1021A00056F10006E1FB048618F1200556F1000601
:1021B000A809A8F11B08B10908F03F08B8F10A0FF7
:1021C00040EA86601CD901EB0C51BDE8F08100BFEC
:1021D000FCF5EEE8E2DDD8D3CFCBC7C3C0BDB9B6BE
:1021E000B4B1AEACA9A7A5A3A19F9D9B9A989695C3
:1021F0009392908F8D8C8B8988878685848382814A
:10220000A0FB006800FB01F208EB4208B8EB87284E
:1022100007D5341858EB0104D5D5401C51F1000105
:10222000D1E7341A78EB0104CDD4401E71F10001DE
:10223000C9E75FEA4C0C5FEA9C5C0DD105D34FF017
:10224000000001F00041BDE8F081BDE8F04170B54B
:10225000FFF7D0FE6DDBFFBEBDE8F0414FF00000A0
:10226000004970470000F87F10B591EA030F48BF9E
:1022700083F000433FF57EAC841A71EB030C07D268
:1022800012198CF0004C43EB0C03001B61EB0C01AA
:10229000DFF8A4E14FEA1154A4EB135C1EEA430FEC
:1022A00018BF9EEA445F00F0B08023EA6E035242FA
:1022B00021EA0451C3EB6E0338BF5B1EDCF1200E34
:1022C00025D322FA0CFE10EB0E0043FA0CFE41EB74
:1022D0000E01CCF1200E03FA0EFE10EB0E0051F1B0
:1022E0000001CCF1200E29D412FA0EF201EB0451B8
:1022F000BDE8104058BF7047401C1CBFB2F1004FF2
:10230000704700280CBF491C20F00100704712EBF9
:10231000020E43EB030218BF4FF0010E4EEA4202D9
:10232000ACF1200CDCF11E0E54D943FA0CFE10EB7C
:102330000E0051F1FF31CCF11E0ED5D50EF1010E7C
:1023400012FA0EFE404141EB010101EB445C5FEAF1
:102350005C5C10D910EBDE7001EB045138BFBEF1AC
:10236000004FBDE8104018BF704700280CBF491C43
:1023700020F00100704730D24FEAD42C11F5001143
:1023800024F400641BD0B1FA81F20B3AA41AA41E03
:10239000D2F12003914030FA03F31943904001EB4E
:1023A000CC71002C01EB0451BDE81040A8BF704770
:1023B00001F1C0414FF0000001F000417047B0FA58
:1023C00080F310FA03F100D110BDE41A173C480560
:1023D000C90AE4E701EB045110BD491001EB0451B7
:1023E000BDE810404FEA300002E04FF000017047B6
:1023F0004A0008BF0042F8D0B2F5001F28BF70475E
:1024000001F000414FF0000070479EEA445F07D0A2
:1024100011EA5E0FBDE8104004BF002100207047A4
:10242000BDE8104070B5FFF7E5FD00BF40DFF63EA8
:1024300083F00041104670470000E0FF43004FEA80
:10244000D30C4FEA3C0C43401FBF40070CF16051D6
:1024500013F0FE4F70471CF0006F03D100200CF00A
:10246000004170470CF0004343EA507010B540EA59
:10247000CC0000F0ECF900BF000000924FEA000130
:10248000FFF706BE4FF000414FF00000A1F500211C
:102490007047000090EA010F48BF81F0004100F151
:1024A0002882421A3CBF801A89184FEAD0524FF056
:1024B0007F4C1CEA410FA2EBD15318BF9CEA026F7C
:1024C00000F03B804FF0004C4CEA00204CEA012128
:1024D00021FA03FC10EB0C0C1ED202F1FF325FEA72
:1024E0001C2040EBC25038BF70471CF07F0F4FEAF2
:1024F000400C18BFBCF17F4F38BF7047C3F12003B9
:10250000994008BF20F00100BCF17F4F38BF7047F1
:10251000A0F1C04000F0E1B94FEA3C00000A40EBF6
:10252000C25028BF1CF0FF0F4FEA400CE6D018BF86
:10253000BCF17F4F38BF7047EAE79CEA026F05D0D5
:1025400010EA5C0F08BF00F00040704710B500F0C3
:102550007EF900BF64FBBE3E4FF47F0C1CEAD01234
:102560001EBF1CEAD11392EA0C0F93EA0C0F00F085
:10257000858090EA010F48BF42F4807240F4000C5D
:1025800041F400002CF07F4120F07F4000B58142F3
:10259000A2EB03020FF2081CACEB504EC0F100009E
:1025A0009EF800E04FEA4E0E00FB0EFC38BF4900DB
:1025B0004FEA2C1C02F5FA020CFB0EF34FEACE1E7A
:1025C0004FEA112C4FEAC1210EEB635E42EB22422F
:1025D0000EFB0CFC4FEA1C5300FB03114FEA112CBD
:1025E0004FEA01310EFB0CFC4FEADC4C00FB0C11F6
:1025F000C14228BF09184CEB03335DF804EB10EB24
:10260000410143EBC250B2F57C0F38BF704729D56A
:1026100012F0F00F1CBF00F1C04000F00040704706
:10262000008182838485868788898B8C8D8E8F91AB
:102630009293959697999A9C9D9FA0A2A3A5A7A8CF
:10264000AAACAEB0B2B3B5B7B9BCBEC0C2C5C7C9FB
:10265000CCCED1D4D7D9DCDFE2E6E9ECF0F3F7FA5F
:10266000FE0000004FEA400C0CF1807CBCF17E4F74
:1026700028BF7047B0F1C04000F02FB990EA010FB9
:102680000CEAD11348BF42F48072624538BF6345FB
:1026900007D213F47F0F16D080EA010000F000404B
:1026A000704710B500F0D3F8097EFC3E00F005B885
:1026B00080EA010000F00040704780EA010000F06D
:1026C000004000F00AB912F47F0F04BF02487047BF
:1026D00080EA010000F001B90000C07FC10DD1F116
:1026E0009E0206DB4FEA002343F0004323FA02F088
:1026F0007047004207D54FEA4001B1F1FE4F02D2C8
:102700004FF00000704710B500F0A1F84992248006
:10271000002070476FEA20007047000010F0004171
:1027200048BF4042B0FA80F310FA03F2C3F19D03B0
:102730000BD051EAC35101EB1220530638BF70474A
:1027400000F1010008BF20F0010070474FF47F0C3A
:102750001CEAD0121EBF1CEAD11392EA0C0F93EAB6
:102760000C0F00F0478090EA010F48BF42F48072DE
:102770004FF0004C4CEA00204CEA012102EB03022E
:10278000A0FB0113A2F50002002918BF43F00103CA
:102790005B0028BF4FEA330342EB22425FEA132C6F
:1027A0004CEBC2502EBFBCEB436FB2F57C0F7047B1
:1027B0004FEA036CBCF1004F08BF20F00100B2F5F6
:1027C0007C0F38BF70470BD582F0FF0212F5803FB7
:1027D000C8BF704700F1C040D8BF00F0004070474C
:1027E00000F5000C5FEA4C0C48BF7047B0F1C040E8
:1027F00000F073B890EA010F0CEAD11348BF42F41D
:102800008072624538BF634504D280EA010000F05F
:102810000040704710B500F01AF800BF8900013E73
:1028200000F007B800F009B85FEA410C5FEA1C6CE1
:1028300008D080EA010000F050B85FEA400C5FEA7F
:102840001C6CF6D14FF00040A0F5800070470EF1EF
:10285000020E2EF0030E5EF8044B244204D44FEA1D
:102860004102B2F17F4F11D84FEA4003B3F17F4FDD
:102870000CD80ED14FEAD07CB2F17F4F0CEB4C0C50
:102880000CF1020C08BF4CEBD17C04E04FF0080CBB
:1028900001E04FEAD17C0CEB4C0324FA03F404F082
:1028A0000704B4F1040C06D20EEB840CBDE8104012
:1028B0004CF0010C6047DFE80CF0070802024FF013
:1028C0000040A0F5800010BD0846420018BFD2F1BC
:1028D000807288BF00F0004010BDFF2141EAD05057
:1028E000C005704790EA010F48BF81F000413FF5F5
:1028F000D8AD421A04D882F00042A0EB0200114485
:102900004FEAD0524FF07F4C1CEA410FA2EBD1535B
:1029100018BF9CEA026F4AD04FF0004C4CEA0020EE
:102920004CEA012121FA03FCB0EB0C0C0FD412F09D
:10293000FE0F36D05FEA4C001DD5001240EBC250AE
:1029400038BF70471CF03F0F18BF70470BE0A2F173
:1029500001025FEA1C2040EBC25038BF70471CF0F8
:102960007F0F18BF7047C3F12003994014BF401E6A
:1029700020F00100704780084FEA122308BF70471B
:10298000B0FA80FCA2EB0C02CCF1280C60FA0CF03F
:1029900093EA122F04BF00EBC25070474FEAC37096
:1029A0007047130A5FEADC1008BF7047F6E79CEA3D
:1029B000026F04D010EA5C0F08BF0020704710B50A
:1029C000FFF745FF40DFF63E81F0004070477E3064
:1029D0006D79335B5F707F7B01000000FC2900088C
:1029E000000000204C00000028010008482A0008D0
:1029F0004C0000209C060000440100082A00000052
:102A000000000000000000000000000000000000C6
:102A100000000000000000000000000000FFFFFFB9
:102A2000FFFF0000000000000000000000000000A8
:102A30000000000000000000010203040102030482
:082A400006070809020406085C
:04000005080000ED02
:00000001FF
