:020000040800F2
:10000000E006002089010008910100089301000822
:100010009501000897010008990100080000000000
:100020000000000000000000000000009B0100082C
:100030009D010008000000009F010008A1010008C8
:10004000A3010008A3010008A3010008A301000800
:10005000A3010008A3010008A3010008A3010008F0
:10006000A3010008A3010008A3010008A3010008E0
:10007000A3010008A3010008A3010008A3010008D0
:10008000A3010008A3010008A3010008A3010008C0
:10009000A3010008A3010008A3010008A3010008B0
:1000A000A3010008FD070008A3010008A301000840
:1000B000A3010008A3010008A3010008A301000890
:1000C000A3010008A3010008A3010008A301000880
:1000D000A3010008A3010008A3010008A301000870
:1000E000A3010008A3010008A301000800F002F822
:1000F00000F03AF80AA090E8000C82448344AAF188
:100100000107DA4501D100F02FF8AFF2090EBAE885
:100110000F0013F0010F18BFFB1A43F0010318473B
:1001200094130000B4130000103A24BF78C878C1BB
:10013000FAD8520724BF30C830C144BF04680C60ED
:10014000704700000023002400250026103A28BF35
:1001500078C1FBD8520728BF30C148BF0B60704739
:100160001FB51FBD10B510BD00F031F81146FFF7E7
:10017000F7FF00F079FE00F04FF803B4FFF7F2FF4D
:1001800003BC00F057F800000948804709480047C1
:10019000FEE7FEE7FEE7FEE7FEE7FEE7FEE7FEE737
:1001A000FEE7FEE704480549054A064B7047000094
:1001B0009D070008ED000008E0000020E006002098
:1001C000E0020020E002002070477047704775464B
:1001D00000F02CF8AE4605006946534620F00700B3
:1001E000854618B020B5FFF7DDFFBDE820404FF091
:1001F00000064FF000074FF000084FF0000B21F011
:100200000701AC46ACE8C009ACE8C009ACE8C009DD
:10021000ACE8C0098D46704710B50446AFF30080C6
:100220002046BDE81040FFF7A8BF00000048704717
:100230007C00002001491820ABBEFEE7260002002A
:1002400070472DE9F04102460025002600200023DA
:100250000024002791F803C00CF00F0591F803C0AB
:100260000CF0100CBCF1000F03D091F802C04CEA66
:10027000050591F800C0BCF1000F31D014680020D2
:100280002BE04FF0010C0CFA00F3B1F800C00CEABF
:1002900003069E4220D183004FF00F0C0CFA03F7A7
:1002A000BC4305FA03FC4CEA040491F803C0BCF11A
:1002B000280F06D14FF0010C0CFA00FCC2F814C054
:1002C0000AE091F803C0BCF1480F05D14FF0010CD2
:1002D0000CFA00FCC2F810C0401C0828D1D31460EE
:1002E000B1F800C0BCF1FF0F34DD546800202EE0EF
:1002F00000F1080C4FF0010808FA0CF3B1F800C047
:100300000CEA03069E4221D183004FF00F0C0CFA39
:1003100003F7BC4305FA03FC4CEA040491F803C05C
:10032000BCF1280F05D100F1080C08FA0CF8C2F84E
:10033000148091F803C0BCF1480F07D100F1080CFC
:100340004FF0010808FA0CF8C2F81080401C082889
:10035000CED35460BDE8F081F0B50A4600230024F6
:100360000021002500F00046B6F1004F02D11D4EDD
:10037000F16901E01B4E7168C0F3034583B200F4DC
:100380004016B6F5401F08D121F07061154E766811
:1003900026F07066134F7E6012E000F48016B6F50A
:1003A000801F06D1032606FA05F4A14341F07061CF
:1003B00006E0460D360103FA06F6B14341F07061DE
:1003C00022B1460D360103FA06F6314300F000462D
:1003D000B6F1004F02D1034EF16101E0014E7160B0
:1003E000F0BD00000000014008B50121084600F002
:1003F000E7F80121102000F0E3F80121042000F0CB
:10040000DFF810208DF803004FF4C040ADF8000075
:1004100003208DF8020069461448FFF712FF1820E8
:100420008DF803004020ADF8000003208DF8020095
:1004300069460F48FFF705FF00210420FFF78CFFF6
:1004400004208DF803000002ADF80000694608485A
:10045000FFF7F7FE18208DF803004FF40070ADF899
:10046000000069460248FFF7ECFE08BD001001409D
:100470000008014070B5002100230F22C47804B3A6
:10048000154C246804F4E064C4F5E064210AC1F169
:100490000403CA40447804FA03F1847814402143E9
:1004A00009010E4C0678A155047804F01F050124BB
:1004B000AC4005786D11AD0005F1E025C5F80041AF
:1004C00009E0047804F01F050124AC40044D0678CF
:1004D000761145F8264070BD0CED00E000E400E028
:1004E00080E100E070B505460B49284600F030FF7A
:1004F00000D20A4D0021284600F02AFE00D2002535
:100500000749284600F058FE064600F0E9FD84B28F
:100510000448048070BD00000000C8420000A042F2
:10052000000090423404004000B587B00121022051
:1005300000F036F80020ADF81600ADF812004FF4C8
:10054000E150ADF814000020ADF810008DF818004F
:1005500004A9124800F0F2FA6020ADF80000002073
:10056000ADF80200ADF80800ADF8060069460B488A
:1005700000F08EFA0821094800F0D6FA0122002185
:10058000064800F02BFA0121044800F01BFA012173
:10059000024800F035FA07B000BD0000000400403A
:1005A00029B1064AD2690243044BDA6104E0034AE6
:1005B000D2698243014BDA617047000000100240AB
:1005C00029B1064A92690243044B9A6104E0034A46
:1005D00092698243014B9A6170470000001002400B
:1005E00030B500210022002400232D4D6D6805F058
:1005F0000C0121B1042905D0082923D105E0294D9A
:10060000056022E0274D05601FE0254D6D6805F46B
:100610007012234D6D6805F48034022505EB92427B
:100620001CB9214D554305600BE01D4D6D6805F467
:1006300000351DB11C4D5543056002E0194D554371
:10064000056002E0174D056000BF00BF144D6D68E6
:1006500005F0F0010909154D6B5C0568DD4045604A
:100660000F4D6D6805F4E061090A104D6B5C45683B
:10067000DD4085600A4D6D6805F46051C90A0B4D77
:100680006B5C4568DD40C560054D6D6805F4404113
:10069000890B074D6B5CC568B5FBF3F5056130BD93
:1006A0000010024000127A0000093D00680000209E
:1006B0007800002010B500F001F810BD0CB5002046
:1006C000019000903348006840F480303149086060
:1006D00000BF3048006800F4003000900198401CD2
:1006E0000190009818B90198B0F5A06FF1D1294890
:1006F000006800F4003010B10120009001E00020FB
:1007000000900098012843D12348006840F0100071
:10071000214908600846006820F007000860084684
:10072000006840F0020008601A48406819494860B3
:100730000846406848600846406840F48060486069
:100740000846406820F47C1048600846406840F441
:10075000E81048600846006840F08070086000BFFC
:100760000C48006800F000700028F9D00948406883
:1007700020F00300074948600846406840F0020046
:10078000486000BF0348406800F00C000828F9D119
:100790000CBD0000001002400020024010B51348BC
:1007A000006840F00100114908600846406810499F
:1007B00008400E494860084600680E4908400B4949
:1007C00008600846006820F48020086008464068F9
:1007D00020F4FE0048604FF41F008860FFF76AFFB6
:1007E0004FF000600449086010BD00000010024096
:1007F0000000FFF8FFFFF6FE08ED00E02DE9F047EE
:100800000121614800F029F900287CD04FF0804197
:10081000898C09B2C1EB0111480000F081FC5B49F1
:10082000086000204FF08041888459480068012802
:100830006AD15848006858490860584800685549C6
:100840000860524801685648006800F0BDFD5349F1
:10085000086054480068544908604E4801684FF0E9
:10086000804000F0A9FC81464C480168484600F0F1
:10087000A0FD074648480168384600F001FB0646DF
:100880004A4801684A48006800F068FB80463146E3
:1008900000F092FC04463F4801684048006800F0C0
:1008A000EFFA81464FF080414048006800F056FB67
:1008B000824640480168504600F07EFC804649462A
:1008C00000F07AFC0646334801683448006800F0BE
:1008D0007BFD814638480168484600F06DFC804643
:1008E00031480168404600F0CBFA0746314600F037
:1008F000C7FA0546214600F0C3FA2A4908600021DC
:100900002848006801E03CE029E000F021FC02D228
:1009100000202449086029492248006800F018FD99
:1009200002D226481F4908601E480068FFF7DAFD1A
:100930001C48006822490860002404E01349085D4F
:1009400000F07AFA641C042CF8DB002404E01C4953
:10095000085D00F071FA641C042CF8DB0DE0002047
:10096000FFF7C0FD00200D4908600A4908600A49E8
:1009700008600C4908600C4908600121024800F039
:100980003CF8BDE8F0870000002C01400C0000207E
:10099000040000204C0000205000002048000020EF
:1009A00040000020540000205800002034000020A7
:1009B00064000020600000205C0000200000A042D5
:1009C0000800002021B1028842F08002028004E089
:1009D00002884FF67F731A400280704730B50023BB
:1009E00001248C40A3B2048C9C430484048C02FA3E
:1009F00001F5ADB22C43048430BDCA430282704776
:100A000021B1028842F00102028004E002884FF620
:100A1000FE731A4002807047F0B50C4615461E461C
:100A20000021002200230189028B038C4FF6F87706
:100A3000394021434FF6FC473A4040F201173A4310
:100A40004FF6DD773B404FF6FF7707EA06172F4357
:100A50003B43018102830384F0BD30B50246002090
:100A600000230024158A05EA0103958905EA01049B
:100A700013B10CB1012000E0002030BD1AB1838910
:100A80000B43838102E083898B438381704700009D
:100A900070B5002400220023058C4FF6FE76354009
:100AA0000584028C8388048B4FF68F752C40B51E0D
:100AB0002C400D882C43751E2A400D892A434D88F1
:100AC0002A43144DA8420BD0134DA84208D0134D11
:100AD000A84205D0124DA84202D0124DA84213D10F
:100AE0004FF6F7752A404D892A434FF6FB752A4089
:100AF0008D882A434FF6FF652B404FF6FF552B405C
:100B00008D892B43CD892B4383800483CD888586B3
:100B1000028470BD002C01400034014000400140BF
:100B200000440140004801400A460021018B4FF675
:100B3000F7731940114301837047000000220288B7
:100B40001D4B98420ED01D4B98420BD0B0F1804FF8
:100B500008D01B4B984205D01A4B984202D01A4B32
:100B6000984204D14FF68F731A404B881A43174BA3
:100B7000984207D0164B984204D04FF6FF431A40D4
:100B8000CB881A4302808B8883850B8803850A4BA8
:100B900098420BD0094B984208D00E4B984205D092
:100BA0000D4B984202D00D4B984201D10B7A03862F
:100BB0000123838270470000002C01400034014073
:100BC0000004004000080040000C004000100040FD
:100BD0000014004000400140004401400048014032
:100BE0001FB5012144F20100FFF7EAFC4FF49640E3
:100BF00000900020ADF80400ADF80600ADF8080044
:100C0000ADF80C000C20ADF80A0069460A4800F067
:100C100037F840F22661084800F010F806480C301A
:100C2000008840F0100004490C310880012102487E
:100C300000F00DF81FBD00000038014001F4007203
:100C4000B2F5007F00D100BFCA430280704721B1D6
:100C5000828942F40052828104E082894DF6FF735A
:100C60001A408281704702460020B1F5007F00D112
:100C700000BF13880B400BB1012000E0002070473B
:100C80002DE9F04786B005460E460024A24600BF77
:100C9000A1460027B08900B100BF2F462C8A4CF630
:100CA000FF700440F08804432C82AC894EF6F310A8
:100CB0000440B08831890843718908430443AC81FA
:100CC000AC8A4FF6FF400440B0890443AC8201A8CF
:100CD000FFF786FC1F48874202D1DDF810A001E033
:100CE000DDF80CA0A88900F4004040B10AEBCA006E
:100CF00000EB0A1031684900B0FBF1F807E00AEB9D
:100D0000CA0000EB0A1031688900B0FBF1F86420DA
:100D1000B8FBF0F004012009642101FB1089A889C7
:100D200000F4004040B1322000EBC900B0FBF1F00C
:100D300000F00700044308E0322000EB09106421B2
:100D4000B0FBF1F000F00F0004432C8106B0BDE8C9
:100D5000F087000000380140C1F30802828070472C
:100D60001FB50121C802FFF72BFC0020ADF80600DB
:100D7000ADF8020042F20F70ADF804002320ADF888
:100D8000000000208DF8080069460E48FFF7D6FEE7
:100D900019208DF80C0001208DF80D0000208DF831
:100DA0000E0001208DF80F0003A8FFF763FB01225E
:100DB00011460448FFF762FE01210248FFF720FEBA
:100DC0001FBD0000002C01401FB501210420FFF7CA
:100DD000F7FB01210846FFF7E3FB04208DF80F0025
:100DE000BDF80C0040F00300ADF80C0003208DF8B6
:100DF0000E0003A90F48FFF724FA0020ADF8060003
:100E0000ADF802004FF6FF70ADF804000020ADF819
:100E1000000069464FF08040FFF790FE02231A461B
:100E200003215807FFF7F8FD01218807FFF7E8FDC8
:100E30001FBD00000008014010B5044600BF80211E
:100E40000848FFF710FF0028F9D021460548FFF7B2
:100E500083FF00BF40210348FFF705FF0028F9D0BA
:100E600010BD000000380140FFF7BEFAFFF7B8FEE2
:100E7000FFF75AFBFFF7A8FFFFF772FF00BFFEE77F
:100E800090EA010F48BF81F0004100F1A482421AAC
:100E90003CBF801A89184FEAD0524FF07F4C1CEAB1
:100EA000410FA2EBD15318BF9CEA026F00F03B80C8
:100EB0004FF0004C4CEA00204CEA012121FA03FCDF
:100EC00010EB0C0C1ED202F1FF325FEA1C2040EB4B
:100ED000C25038BF70471CF07F0F4FEA400C18BF5C
:100EE000BCF17F4F38BF7047C3F12003994008BF62
:100EF00020F00100BCF17F4F38BF7047A0F1C04027
:100F000000F021BA4FEA3C00000A40EBC25028BF73
:100F10001CF0FF0F4FEA400CE6D018BFBCF17F4F2A
:100F200038BF7047EAE79CEA026F05D010EA5C0F11
:100F300008BF00F00040704710B500F0BEF900BFD8
:100F400064FBBE3E401058BFC0F14040491058BF3E
:100F5000C1F140418142EFF3008070474FF47F0CB4
:100F60001CEAD0121EBF1CEAD11392EA0C0F93EABE
:100F70000C0F00F0858090EA010F48BF42F48072A8
:100F800040F4000C41F400002CF07F4120F07F4041
:100F900000B58142A2EB03020FF2081CACEB504EED
:100FA000C0F100009EF800E04FEA4E0E00FB0EFC80
:100FB00038BF49004FEA2C1C02F5FA020CFB0EF375
:100FC0004FEACE1E4FEA112C4FEAC1210EEB635EB1
:100FD00042EB22420EFB0CFC4FEA1C5300FB0311B8
:100FE0004FEA112C4FEA01310EFB0CFC4FEADC4CAE
:100FF00000FB0C11C14228BF09184CEB03335DF80C
:1010000004EB10EB410143EBC250B2F57C0F38BF4B
:10101000704729D512F0F00F1CBF00F1C04000F05E
:1010200000407047008182838485868788898B8C05
:101030008D8E8F919293959697999A9C9D9FA0A241
:10104000A3A5A7A8AAACAEB0B2B3B5B7B9BCBEC091
:10105000C2C5C7C9CCCED1D4D7D9DCDFE2E6E9EC32
:10106000F0F3F7FAFE0000004FEA400C0CF1807C30
:10107000BCF17E4F28BF7047B0F1C04000F063B9AB
:1010800090EA010F0CEAD11348BF42F48072624526
:1010900038BF634507D213F47F0F16D080EA0100F2
:1010A00000F00040704710B500F007F9097EFC3EE3
:1010B00000F005B880EA010000F00040704780EAC7
:1010C000010000F0004000F03EB912F47F0F04BFB1
:1010D0000248704780EA010000F035B90000C07F87
:1010E000C10DD1F19E0206DB4FEA002343F000431D
:1010F00023FA02F07047004207D54FEA4001B1F1F0
:10110000FE4F02D24FF00000704710B500F0D5F846
:1011100049922480002070476FEA20007047000049
:1011200010F0004148BF4042B0FA80F310FA03F2D9
:10113000C3F19D030BD051EAC35101EB12205306BA
:1011400038BF704700F1010008BF20F00100704770
:1011500050EA010C00F113801CF5000F58BFBCF5DC
:10116000000F01D48842704707D710F5000F58BF11
:1011700011F5000F15D488427047894270471CF55D
:10118000000F04D5BCF5000FF7D5814270474FF032
:10119000807C1CEB400F38BF1CEB410F01D2814219
:1011A000704710B500F089F8922449004FF00050C4
:1011B0004FF08051FFF7C6BE4FF47F0C1CEAD012EF
:1011C0001EBF1CEAD11392EA0C0F93EA0C0F00F039
:1011D000478090EA010F48BF42F480724FF0004C04
:1011E0004CEA00204CEA012102EB0302A0FB0113B0
:1011F000A2F50002002918BF43F001035B0028BFDD
:101200004FEA330342EB22425FEA132C4CEBC2500D
:101210002EBFBCEB436FB2F57C0F70474FEA036CF7
:10122000BCF1004F08BF20F00100B2F57C0F38BFC1
:1012300070470BD582F0FF0212F5803FC8BF7047A0
:1012400000F1C040D8BF00F00040704700F5000C2E
:101250005FEA4C0C48BF7047B0F1C04000F073B873
:1012600090EA010F0CEAD11348BF42F48072624544
:1012700038BF634504D280EA010000F000407047A7
:1012800010B500F01AF800BF8900013E00F007B861
:1012900000F009B85FEA410C5FEA1C6C08D080EAF4
:1012A000010000F050B85FEA400C5FEA1C6CF6D118
:1012B0004FF00040A0F5800070470EF1020E2EF0B6
:1012C000030E5EF8044B244204D44FEA4102B2F10B
:1012D0007F4F11D84FEA4003B3F17F4F0CD80ED1A6
:1012E0004FEAD07CB2F17F4F0CEB4C0C0CF1020CAE
:1012F00008BF4CEBD17C04E04FF0080C01E04FEA52
:10130000D17C0CEB4C0324FA03F404F00704B4F191
:10131000040C06D20EEB840CBDE810404CF0010C1E
:101320006047DFE80CF0070802024FF00040A0F52C
:10133000800010BD0846420018BFD2F1807288BFFD
:1013400000F0004010BDFF2141EAD050C0057047B9
:1013500051EA000C00F113801CF5000F58BFBCF5DA
:10136000000F01D48142704707D711F5000F58BF15
:1013700010F5000F15D481427047894270471CF563
:10138000000F04D5BCF5000FF7D5884270474FF029
:10139000807C1CEB410F38BF1CEB400F01D2884210
:1013A000704780EA010081EA000180EA0100FFF74E
:1013B000F8BE80F0004090EA010F7FF568AD81F043
:1013C000004100F008B8000090EA010F48BF81F02A
:1013D00000413FF55CAD421A04D882F00042A0EB18
:1013E000020011444FEAD0524FF07F4C1CEA410FEB
:1013F000A2EBD15318BF9CEA026F4AD04FF0004CC9
:101400004CEA00204CEA012121FA03FCB0EB0C0C61
:101410000FD412F0FE0F36D05FEA4C001DD500123B
:1014200040EBC25038BF70471CF03F0F18BF7047E9
:101430000BE0A2F101025FEA1C2040EBC25038BF72
:1014400070471CF07F0F18BF7047C3F1200399400D
:1014500014BF401E20F00100704780084FEA12239D
:1014600008BF7047B0FA80FCA2EB0C02CCF1280C4C
:1014700060FA0CF093EA122F04BF00EBC2507047E1
:101480004FEAC3707047130A5FEADC1008BF704769
:10149000F6E79CEA026F04D010EA5C0F08BF002058
:1014A000704710B5FFF709FF40DFF63E81F00040BE
:1014B00070470000D4140008000000207C000000E9
:1014C00028010008501500087C0000206406000078
:1014D00044010008000000000000000000000000BF
:1014E000000000000AD7233D0AD7A33C17B7D13824
:1014F00000000000000000000000000000000000EC
:1015000000000000000000000AD7A33B000000001C
:1015100000000000000016440AD7233C0000000031
:1015200000000000000000000000000000000000BB
:1015300000000000000000000000000000000000AB
:101540000102030401020304060708090204060855
:04000005080000ED02
:00000001FF
