:020000040800F2
:10000000D8070020310200086B210008D51900082C
:1000100069210008550600087B2500080000000043
:100020000000000000000000000000006F21000838
:1000300009070008000000006D2100087121000878
:100040004B0200084B0200084B0200084B0200085C
:100050004B0200084B0200084B0200084B0200084C
:100060004B0200084B0200084B0200084B0200083C
:100070004B0200084B0200084B0200084B0200082C
:10008000590600084B0200084B0200084B0200080A
:100090004B0200084B0200084B0200084B0200080C
:1000A0004B0200084B0200084B0200084B020008FC
:1000B0004B0200084B0200084B0200084B020008EC
:1000C0004B0200084B0200084B0200084B020008DC
:1000D0004B0200084B0200084B0200084B020008CC
:1000E0004B0200084B0200084B0200084B020008BC
:1000F0004B0200084B0200084B0200084B020008AC
:100100004B0200084B0200084B0200084B0200089B
:100110004B0200084B0200084B0200084B0200088B
:100120004B0200084B0200084B0200084B0200087B
:100130004B0200084B0200084B0200084B0200086B
:100140004B0200084B0200084B0200084B0200085B
:100150004B0200084B0200084B0200084B0200084B
:100160004B0200084B0200084B0200084B0200083B
:100170004B0200084B0200084B0200080000000080
:100180004B0200084B02000800F002F800F040F8B3
:100190000AA090E8000C82448344AAF10107DA45E2
:1001A00001D100F035F8AFF2090EBAE80F0013F0F4
:1001B000010F18BFFB1A43F001031847A4310000D8
:1001C000C4310000103A24BF78C878C1FAD8520769
:1001D00024BF30C830C144BF04680C6070470000C1
:1001E0000023002400250026103A28BF78C1FBD840
:1001F000520728BF30C148BF0B6070471FB503F0DE
:1002000094F89DE8030000F047F91FBD10B510BD3C
:1002100000F09EF91146FFF7F1FF02F005FA00F039
:10022000BCF903B4FFF7F2FF03BC00F0EDF90000E6
:100230000948804709480047FEE7FEE7FEE7FEE77A
:10024000FEE7FEE7FEE7FEE7FEE7FEE704480549B6
:10025000054A064B70470000052200088901000886
:10026000D8010020D8070020D8030020D8030020A0
:1002700070B5064600F0F4F8056806F10B0020F0B2
:100280000704B4429CBF002070BD2B466A68BAB117
:100290001068A04210D304F1080188423CBF5068A6
:1002A000586007D35168101941601168091B01603B
:1002B00058601460101D70BD13465268002AE7D1C3
:1002C0002146284600F0D4F80028DED170BD70B574
:1002D0000446051F00F0C4F80068002C14BF4468F1
:1002E00070BD002C18BFAC423CBF20466468F8D3F8
:1002F00001680A18AA4218BF456003D12A6805465A
:100300001144016028684119A1421CBF6C6070BD96
:100310006168696021680844286070BD53EA020C76
:1003200000F069802DE9F04B4FF00006002B1FBF55
:10033000B3FA83F503FA05F424FA05F65E4012BF1A
:100340001643B2FA82F502FA05F4C5F120051EBF84
:1003500022FA05FC44EA0C04203556EA044C4FEA24
:10036000144418BF641C4FF000084FF0000990427D
:1003700071EB030C39D3002919BFB1FA81F701FAE7
:1003800007F6B0FA80F700FA07F6C7F120071EBF9C
:1003900020FA07FC46EA0C062037B6FBF4FCA7EB74
:1003A0000507103F07F01F0BCBF120060CFA0BFBE3
:1003B0002CFA06F644BFB3460026202FA4BF5E46A3
:1003C0004FF0000B5BEA060C08BF4FF0010B19EB76
:1003D0000B09ABFB027C48EB0608C01B06FB02CCFA
:1003E0000BFB03CC71EB0C01C1E70B460246414607
:1003F0004846BDE8F08B13B54FF000004FF0000108
:10040000AFF30080BDE81C4070474FF0000200B51C
:10041000134694469646203922BFA0E80C50A0E827
:100420000C50B1F12001BFF4F7AF090728BFA0E8D5
:100430000C5048BF0CC05DF804EB890028BF40F8A1
:10044000042B08BF704748BF20F8022B11F0804FE3
:1004500018BF00F8012B70477047704770470000C5
:100460000048704780010020704770477047704710
:1004700038B504460A4600206946AFF300800028DC
:1004800008BF38BD02460099204600F03FF8012021
:1004900038BD012000F054B8F8B5AFF30080054630
:1004A00000200C46102000BF0646A819A0420DD916
:1004B000324669460020AFF30080070008BF00F015
:1004C0003FF80098A04218BF0546C419FFF7C8FFBF
:1004D00005600746F01D20F007004619284600F089
:1004E0000AF8B44208BFF8BDA21B31463868BDE81F
:1004F000F84000F00BB800210160C0E9011070471E
:10050000102070470048704778010020034640687B
:100510008C46002818BF88423CBF03464068F8D389
:1005200018681844884207D00CF1030020F0070037
:10053000001D411A521A0146081D0A60FFF7C7BE86
:1005400010B500F039F8BDE8104000F02FB8704742
:100550007546FFF7D7FFAE4605006946534620F0C3
:100560000700854618B020B5FFF770FEBDE82040B3
:100570004FF000064FF000074FF000084FF0000B5F
:1005800021F00701AC46ACE8C009ACE8C009ACE812
:10059000C009ACE8C0098D46704710B50446AFF3FA
:1005A00000802046BDE81040FFF73BBE002801D088
:1005B00000F02AB87047000010B5012805D00021CE
:1005C00003A000F027F8012010BD09A1F8E7000002
:1005D00053494752544D454D3A204F7574206F662C
:1005E0002068656170206D656D6F72790000000094
:1005F0003A2048656170206D656D6F727920636F78
:10060000727275707465640001491820ABBEFEE714
:100610002600020070B505460C460A2000E06D1C5D
:1006200000F011F835B128780028F8D102E0641CF8
:1006300000F009F814B120780028F8D1BDE8704026
:100640000A20AFF3008008B569468DF8000003204A
:10065000ABBE08BDFEE70000014800F059B800003D
:100660000C01002001681823CAB2103AB2FBF3F261
:10067000054B6FF30901032A9B5CC36500D9091D73
:1006800081650846704700003E33000810B50146FA
:1006900000208B698A6A4FF0C07453B1B3F5005FD4
:1006A00015D072B1012A0CD0022A0AD0032A09D12E
:1006B00004E01AB1012A06D0022A03D1C96AC9018D
:1006C00000D5012010BDC96AA142FAD010BD002A90
:1006D000F7D0012AF2D0022AF3D0032AF3D010BDBA
:1006E00030B50468256825F48025256004686360BA
:1006F0008368402B036803D099600068C26030BDF6
:100700009A600068C16030BD704772B6FEE70000B5
:100710002DE9F84304464FF00009CDF800906348F6
:100720004FF41651A56D0068B0FBF1F72E6894F8F0
:100730005C10082000FA01F131420FD021680A68EC
:1007400052070BD50A6822F004020A6094F85C1084
:100750008840A860606D40F00100606594F85C100E
:100760004FF0010808FA01F0304208D021684969C9
:10077000090604D5A860606D40F00200606594F839
:100780005C1004208840304208D02168096889073D
:1007900004D5A860606D40F00400606594F85C10BA
:1007A00010208840304218D021680968090714D504
:1007B000A86020680168490304D50068000308D5D3
:1007C000A16C07E00168C90503D4016821F00801A4
:1007D0000160216C09B12046884794F85C10202004
:1007E0008840304231D021680968C9062DD5A860FB
:1007F00094F8350005282068016806D0490347D5DC
:10080000006800031DD4616C1CE021F0160101603A
:100810002068416921F080014161206C08B9A06C19
:1008200020B12068016821F00801016094F85C1093
:100830003F208840A86084F8358084F83490216D8A
:100840001FE0E16B09B120468847606D00282BD07E
:10085000606DC00714D0052084F835002068016859
:1008600021F0010101600098401C0090B84203D8BB
:1008700020680068C007F6D184F8358084F8349089
:10088000E16C002910D001B02046BDE8F0430847D4
:100890000168C905D5D4016821F01001016084F810
:1008A000358084F83490CCE7BDE8F883240000203C
:1008B0002DE9F041044600F0A7F906465CB102209C
:1008C00084F83500002584F834502068016821F050
:1008D000010101600DE00120BDE8F08100F094F914
:1008E000801B052805D920206065032084F8350089
:1008F000F2E720680068C007F0D12268116820483C
:100900000140D4E901031843D4E9033633431843C3
:1009100063691843A3691843E3691843236A1843BA
:100920000843616A042903D1D4E90B13194308432E
:10093000106020684069666A20F0070130460E4367
:10094000012704280CD1A06A0643E06A40B1204682
:10095000FFF79CFE20B14020606584F83570BAE74F
:10096000206846612046FFF77DFE94F85C203F2119
:1009700091408160656584F835700020ACE7000027
:100980003F8010F02DE9F0410446866D90F8340068
:10099000002501280DD0012084F8340094F835702A
:1009A0000020012F07D084F8340002252846BDE836
:1009B000F0810220FBE7022784F83570606520464D
:1009C000FFF78EFE94F85C103F208840B0602068EE
:1009D000016841F016010160206C20B120680168B7
:1009E00041F0080101602068016841F001010160E7
:1009F000DCE7000070B5044600F006F90546601C0F
:100A000002D004480078044400F0FEF8401BA042E5
:100A1000FAD370BD180000202DE9F84FDFF8BCA113
:100A20000022012503264FF00F090AF1040BAAF159
:100A3000040E00BF0B6805FA02F42340A34270D1F4
:100A40000F7907F00307012F01D0022F16D1876815
:100A50004FEA420806FA08FC27EA0C07D1F80CC056
:100A60000CFA08FC4CEA070CC0F808C04768A7431A
:100A70000C79C4F3001494403C4344600C79E44383
:100A8000A4070AD0C4684FEA420C06FA0CF7BC432C
:100A90008F6807FA0CF72743C7600C7904F003044A
:100AA000022C12D1D40800EB840CDCF8204057074C
:100AB000FF0E09FA07F824EA0804D1F8108008FAB2
:100AC00007F848EA0408CCF8208004684FEA420C92
:100AD00006FA0CF7BC430F7907F0030707FA0CF787
:100AE000274307604C6814F4403F70D03C4C2768A3
:100AF00047F480472760246822F0030704F4804409
:100B00000094384C07EB040CDCF8084897074FEAD0
:100B1000177809FA08F7BC43334FB84202D10027CF
:100B200024E054E0314FB84201D101271EE0304F9C
:100B3000B84201D1022719E02E4FB84201D1032754
:100B400014E02D4FB84201D104270FE02B4FB842DB
:100B500001D105270AE02A4FB84201D1062705E056
:100B6000284FB84201D1072700E0082707FA08F705
:100B70002743CCF80878DAF800405746D1F804C08B
:100B80009C435FEACC2C00D51C433C60DBF8004062
:100B90005F46D1F804C09C435FEA8C2C00D51C430F
:100BA0003C60DEF800407746D1F804C09C435FEA21
:100BB0008C3C00D51C433C60084F083F3C68D1F892
:100BC00004C09C435FEACC3C00D51C433C60521CF3
:100BD000102AFFF42FAFBDE8F88F0000083C014059
:100BE000443802400030014000000240000402404E
:100BF00000080240000C02400010024000140240B5
:100C000000180240001C0240014880687047000044
:100C10001800002070B5040025D094F83D00002590
:100C200020B984F83C50204600F052FA242084F881
:100C30003D002068016821F0010101602068016821
:100C400041F4004101602068016821F40041016025
:100C500000F0A8FB4D4A6168914201D84C4900E080
:100C60004C49884201D2012070BD4B492368B0FB3A
:100C7000F1F15E6826F03F060E435E6063689342C2
:100C800006D94FF4967359434FF47A73B1FBF3F1DD
:100C90002368491C1E6A26F03F06314319626168C9
:100CA000914210D84900401EB0FBF1F2521CC2F331
:100CB0000B02042A01D2042022E0B0FBF1F0401C18
:100CC000C0F30B001CE0A268F2B301EBC10303EB1D
:100CD0000116431EB3FBF6F35B1C43F480431B0574
:100CE00049D092B301EBC10202EB0111401EB0FBEF
:100CF000F1F0401CC0F30B0040F4804040F4004091
:100D00002168CA694CF6FF739A431043C861D4E95D
:100D1000071001432068026822F0C00211430160FD
:100D2000D4E9030101432068826848F2FF339A4303
:100D300011438160D4E9050108432168CA6822F0A3
:100D4000FF021043C86001E00EE016E02068016871
:100D500041F0010101602564202084F83D002563F5
:100D600084F83E50002070BD01EB4106431EB3FBEA
:100D7000F6F35B1CB3E70120C2E701EB4101401E23
:100D8000B0FBF1F0401CC0F30B00B7E7A0860100F8
:100D900080841E0000093D0040420F002DE9FF4FF6
:100DA00083B09A46DDE9118793460446DDF840900A
:100DB000FFF72AFF054694F83D00202870D119233B
:100DC000012274492046009500F01AFF0028F5D151
:100DD00094F83C00012863D0012084F83C0020688E
:100DE0000168C90703D1016841F001010160206871
:100DF000016821F400610160222084F83D00402058
:100E000084F83E0000262664C4F82490A4F82A80C2
:100E1000608D20856048E062CDE9007553465A46F2
:100E20002046049900F0EEFD002879D1208DD0B144
:100E3000012821D00228206824D0416980690090CF
:100E4000208D032866D801282BD0544902283B4620
:100E50004FF00002009557D08846204600F0D0FEA3
:100E600000285DD13AE020684169816900910168FC
:100E700041F4007101607DE02068016821F4806127
:100E80000160F0E7016821F4806101602068016879
:100E900041F400610160206841698069009069E067
:100EA00075E02A463946204600F050FF88BB54E0E2
:100EB0002068016841F40071016020680069616A7E
:100EC0000870606A401C6062218D491E2185618D19
:100ED000491E618521680969017042E02068016846
:100EE00021F48061016020680069616A0870606AAD
:100EF000401C6062208D401E2085608D401E6085F4
:100F00003B46002241460095204600F079FE00B99C
:100F1000CEE705E02A463946204600F017FF18B113
:100F2000012007B0BDE8F08F20680069616A087091
:100F3000606A401C6062208D401E81B22185608DF8
:100F4000401E608520684269D243520712D40329AB
:100F500003D1016821F48061016020680069616A41
:100F60000870606A401C6062208D401E2085608D84
:100F7000401E6085208D00287FF462AF202084F819
:100F80003D0084F83E6084F83C600020C9E7022000
:100F9000C7E70000020010000000FFFF040001008E
:100FA0002DE9FF4F83B09A46DDE911979346044639
:100FB000DDF84080FFF728FE054694F83D00202824
:100FC0007FD11923012240492046009500F018FEE8
:100FD000002876D194F83C00012872D0012084F8D2
:100FE0003C0020680168C90703D1016841F0010194
:100FF00001602068016821F400610160212084F80B
:101000003D00402084F83E0000262664C4F8248079
:10101000A4F82A90608D20852C48E062CDE9007507
:1010200053465A462046049900F06AFD70B930E0F4
:101030002A463946204600F0C1FE58B1206C0428EB
:1010400004D12068016841F400710160012007B0FB
:10105000BDE8F08F606A216800780861606A401C12
:101060006062218D491E89B22185628D521E628582
:1010700022685369DB435B070BD469B100781061C8
:10108000606A401C6062208D401E2085608D401E7D
:101090006085208D0028CBD12A463946204600F0B5
:1010A00083FD0028CAD154F83D0B016841F400715A
:1010B0000160202004F81E09E67766770020C6E765
:1010C000FFE70220C3E70000020010000000FFFF5E
:1010D00010B586B0044614216846FFF796F9134907
:1010E0002068884220D112480021026842F00202A2
:1010F0000260006800F002000590C02000901220FD
:10110000CDE90101032003900420049069460948B9
:10111000FFF782FC06481030016841F400110160BD
:10112000006800F40010059006B010BD00540040A7
:1011300030380240000402400248816802781144BD
:1011400081607047180000200B4810B5016841F419
:1011500000710160016841F480610160016841F43F
:1011600080710160032000F071F8002000F006F8A3
:1011700000F024F8002010BD003C024070B50D4D79
:1011800004464FF47A712878B1FBF0F00A490968F7
:10119000B1FBF0F000F00CFB48B9102C07D2002294
:1011A0002146501E00F032F800206C6070BD012016
:1011B00070BD000018000020240000200B4882B001
:1011C000016841F480410160006800F480400090B3
:1011D0000648001F016841F080510160006800F07E
:1011E00080500090072002B000F030B84438024030
:1011F000002809DB00F01F02012191404009800016
:1012000000F1E020C0F8001170470000F0B40E4B70
:101210001B680C46C3F30223C3F10705042D00D954
:101220000425191D072901D2002300E0DB1E012639
:1012300006FA05F1491E214099409E40761E16404F
:101240003143F0BC01F09AB90CED00E0064900F022
:10125000070208684FF6FF03184040EA0220034ADD
:1012600010430860704700000CED00E00000FA0534
:101270002DE9F0470E46050065D0DFF81481D8F857
:101280000000F7B200F00700B04207D288F8007003
:10129000D8F8000000F00700B04254D128683D4C57
:1012A000810712D5400703D5206840F4E050206044
:1012B0002878000703D5206840F46040206020684B
:1012C000A96820F0F000084320602878C0072DD0DE
:1012D000304968680839012812D0022813D0032841
:1012E00011D00968890700292DDA216821F003014E
:1012F00001432160FFF788FC814641F2883A0EE005
:1013000009688903EFE709688901ECE7FFF77CFCCE
:10131000A0EB0901514502D90320BDE8F087206800
:10132000696800F00C00B0EB810FEFD1D8F8001025
:10133000404601F00701B14207D90770006800F08C
:101340000700B04201D00120E7E72878400705D523
:101350002068E96820F4E0500843206028780007FE
:1013600006D52068296920F4604040EAC100206069
:1013700000F038F82168084AC1F30311515CC840F5
:101380000649086006480068FFF7F8FE0020C4E739
:10139000003C024008380240463300082400002088
:1013A0001C0000200448054900680968044AC1F38C
:1013B0008221515CC8407047240000200838024058
:1013C000563300080448054900680968044AC1F317
:1013D0004231515CC8407047240000200838024068
:1013E00056330008154810B5006810F00C02144878
:1013F00013D04110042A0FD0082A0ED10F4C241FFD
:101400002268236802F03F025B0207D52068C0F320
:101410008810A0FB010106E0084610BD2168C1F359
:101420008811A1FB00010023FEF778FF2168C1F3BA
:101430000141491C4900B0FBF1F010BD08380240E1
:101440000024F4002DE9F84F04006ED02078DFF876
:101450004C93C007A9F104054AD009F104000168C2
:10146000C1F38101012908D00068C0F3810002287E
:101470000AD1D9F80000400206D52868800337D584
:1014800060680028E1D033E06068B0F5803F10D09C
:10149000B0F5A02F286810D020F48030286028688C
:1014A00020F4802028606068A8B1FFF7ADFB0646F5
:1014B0000DE0286840F48030F4E740F48020286094
:1014C000F7E700BFFFF7A0FB801B642873D82868EC
:1014D0008003F7D50CE0FFF797FB064605E000BF59
:1014E000FFF792FB801B6428F0D828688003F7D4AC
:1014F0002078DFF8AC8280074FF0000A3ED5A7487D
:10150000001D016811F00C0F08D00068C0F38100C5
:1015100002280BD1D9F80000400207D428688007C0
:1015200016D5E068012800D112E033E1E068B8B1D7
:101530000120C8F80000FFF767FB064605E000BF82
:10154000FFF762FB801B0228C0D828688007F7D508
:101550002868216920F0F80040EAC10028600DE009
:10156000C8F800A0FFF750FB064604E0FFF74CFB6D
:10157000801B02281FD828688007F7D4207800072E
:1015800022D5864F87486169703771B101210160AA
:10159000FFF73AFB064604E0FFF736FB801B022804
:1015A00009D838688007F7D50EE0C0F800A0FFF72B
:1015B0002BFB064605E082E0FFF726FB801B022896
:1015C0007DD838688007F7D42078400768D5DFF8E1
:1015D000CCB100270BF13C0BDBF80000C0000BD4B2
:1015E000DBF8001041F08051CBF80010DBF8000070
:1015F000012700F0805000906B4E3068C00510D479
:10160000306840F480703060FFF7FEFA009005E02B
:10161000FFF7FAFA0099401A022850D83068C0053E
:10162000F6D55E4EA0686C3601280FD005283068CC
:1016300010D020F001003060306820F004003060ED
:10164000A068B8B1FFF7E0FA00900FE0306840F012
:101650000100F4E740F004003060F7E7FFF7D4FA48
:101660000099411A41F28830814266D8306880077B
:10167000F4D50EE0FFF7C8FA009007E0FFF7C4FAD0
:101680000099411A41F28830814256D8306880076B
:10169000F4D42FB1DBF8001021F08051CBF800100A
:1016A000A069C8B33D49091D0968C1F38101022938
:1016B0004AD00228504607D0C8F8600000E03CE05D
:1016C000FFF7A2FA04463BE04746C8F86000FFF780
:1016D0009BFA064605E000BFFFF796FA801B02283A
:1016E0002BD828688001F7D4D4E907010843A16A00
:1016F0002E4A490802EB0141626A41EA821108431D
:1017000094F82C1040EA0161C9F8001001203866F5
:10171000FFF77AFA044606E03EE000BFFFF774FAEE
:10172000001B022809D828688001F7D534E000BFE3
:10173000FFF76AFA001B022802D90320BDE8F88FE0
:1017400028688001F4D427E00128F7D0D9F80000F8
:10175000E26900F4800191421CD1226A00F03F014D
:10176000914217D147F6C071626A0140B1EB821F06
:1017700010D1A26A4FF0FF3300F4403103EB520264
:10178000B1EB024F06D194F82C1000F07060B0EB72
:10179000016F01D00120D1E70020CFE704380240DB
:1017A00000004742800E4742007000400000FFFFEB
:1017B00010B5401EB0F1807F01D3012010BD4FF065
:1017C000E02460610F21601700F0D8FE0020A061C6
:1017D00007202061002010BD38B5044690F8420073
:1017E000202801D0022038BD61B15AB10120206308
:1017F00000206063204600F03FFE0028F3D1216BFB
:10180000012901D0012038BD21680A68496800918A
:1018100021680C3151E8002F42F0100241E800230A
:10182000002BF5D138BD7047704770B5040004D067
:1018300094F84100002510B106E0012070BD84F845
:101840004050204600F024F8242084F8410020680D
:10185000C16821F40051C160204600F087FD206876
:10186000016921F4904101612068416921F02A0158
:1018700041612068C16841F40051C1606564202065
:1018800084F8410084F842006563002070BD0000C8
:1018900070B586B0064614216846FEF7B6FD1F49AE
:1018A0003068884237D11E480025016841F4003174
:1018B0000160006800F40030059019481038016894
:1018C00041F0010101600068694600F001000590E7
:1018D0000C2000900220CDE9010503200390072091
:1018E00004901048FFF798F8104C0F4820604FF014
:1018F0000060C4E901054014C4E903506561A561B5
:10190000E561256220466562FEF7D2FF08B1FEF769
:10191000FCFEF463A66306B070BD00000044004006
:101920004038024000000240886002400C01002064
:10193000704770472DE9F843044690F841009846F7
:1019400016460D46202802D00220BDE8F88385B156
:101950007EB100206064212084F84100FFF754F933
:10196000A6848146E684A0682027B0F5805F02D077
:1019700003E00120E9E7206910B12E4600250EE0C2
:1019800000260CE08021204600F0BEFDA8B9C6B1BB
:1019900016F8010B21684860E08C401EE084E08C62
:1019A0004B464FF00002CDF800800028EAD14FF0FE
:1019B0004001204600F0A8FD40B184F841700320AA
:1019C000C3E735F8020BC0F30800E3E784F8417081
:1019D0000020BAE7FEE701684A69D24352050FD4F6
:1019E0006FF480624A61002140F8301F2022427368
:1019F0008173026942F004020261017301207047A1
:101A0000002070472DE9F84F0446006889460B9D79
:101A100001689846174641F48061016020680168BA
:101A200041F48071016000954FF0011B002259467E
:101A300020460A9B00F0E4F84FF4007A40B1206899
:101A40000068C00501D5C4F840A00320BDE8F88FA8
:101A5000216809F0FE0008612B46284920460A9AB1
:101A600000F016F9F0BB20684169806900902A46B1
:101A700020460A9900F0A2F940B1206C04283AD11E
:101A80002068016841F40071016034E0FEB2B8F1F1
:101A9000010F09D02168380A08612A4620460A99B0
:101AA00000F08CF90028E8D1206806612A4620461B
:101AB0000A9900F083F90028DFD12068016841F419
:101AC0008071016000950022594620460A9B00F073
:101AD00097F80028B3D1216809F0FF0040F0010019
:101AE000086100E007E02B46044920460A9A00F00E
:101AF000CFF80028AAD00120A8E7000002000100CA
:101B00002DE9F843044600680D46DDE908970168B1
:101B10009846164641F4807101604B4600224FF012
:101B200001112046009700F06BF848B1206800686A
:101B3000C00502D54FF4007020640320BDE8F8838F
:101B4000216805F0FE0008613B464A4615492046DB
:101B500000F09EF888B920684169806900903A4693
:101B60004946204600F02AF948B1206C042804D1E7
:101B70002068016841F4007101600120DEE7F5B2E0
:101B8000B8F1010F09D02168300A08613A46494688
:101B9000204600F013F90028E7D1206805610020F5
:101BA000CCE700000200010070B516460D46044661
:101BB0001EE02046FFF70FFF08B1012070BD681C32
:101BC00016D0FFF721F8801BA84200D885B92068FD
:101BD0004069C04340070BD5002044F8300F202156
:101BE0006173A073216941F0200121612073E4E752
:101BF00020684069C0434007DBD4002070BD00006E
:101C00002DE9F047984617460D460446C1F30746AE
:101C1000DDF820902AE000BFB8F1FF3F26D0FEF7A4
:101C2000F3FFA0EB0901414502D8B8F1000F1DD127
:101C30002068012E16D0806925EA00000004000CFF
:101C400012D00020B84211D1002044F8300F2021DA
:101C50006173A073216941F020012161207301208B
:101C6000BDE8F0874069E7E70120EBE72068012E37
:101C70000AD0806925EA00000004000C06D000208C
:101C8000B842C9D00020EBE74069F3E70120F7E74D
:101C90002DE9F047984616460D4604464FF00009D8
:101CA0004FF0200AC1F3074723E020684069C04392
:101CB000400515D42068016841F400710160216875
:101CC0006FF480604861C4F8309084F83DA084F8D7
:101CD0003E90216C41F00401216484F83C9021E0A5
:101CE000701C06D0FEF790FFA0EB0800B04203D8AE
:101CF00016B1012F1FD021E02068012F15D0806977
:101D000025EA00000004000C18D000BF44F8309F02
:101D100084F80DA084F80E90216941F02001216122
:101D200084F80C900120BDE8F087406925EA0000A6
:101D30000004000CEAD12068406901E02068806955
:101D400025EA00000004000CAFD1ECE72DE9F041DA
:101D5000002590460E460446202728E04069C043EF
:101D6000C0060CD454F8301B6FF01000486144F8E2
:101D700010596777A577206A2062257714E0FEF76F
:101D800043FFA0EB0800B04200D886B92068406944
:101D9000C04340060BD544F8305F6773A5732069D4
:101DA00040F02000206125730120BDE8F08120680B
:101DB0004169C9434906D1D40020F6E770B51646FB
:101DC0000D4604461EE02046FFF705FE08B101203F
:101DD00070BD681C16D0FEF717FF801BA84200D804
:101DE00085B920684069C04300060BD5002044F83F
:101DF000300F20216173A073216941F0200121611E
:101E00002073E4E720684069C0430006DBD400206B
:101E100070BD000010B56420FEF72AFA040003D05C
:101E20000248206000F0F6FC204610BDA920000802
:101E300070B5424E04462DED048B7068054601F0E6
:101E400003FA41EC190BB4F9040000F0FDFF9FED1B
:101E50003C8B53EC182B01F00FF853EC192B00F0CE
:101E60009BFE00F0BFFDA061284601F0EDF941ECBA
:101E7000190BB4F9060000F0E7FF53EC182B00F043
:101E8000FBFF53EC192B00F087FE00F0ABFDE06187
:101E9000284601F0D9F941EC190BB4F9080000F01B
:101EA000D3FF53EC182B00F0E7FF53EC192B00F095
:101EB00073FE00F097FD2062B4F90A009FED221A2C
:101EC00000EE100AF8EEC00A80EE810A10EE100A49
:101ED00001F0BAF99FED1D1B53EC112B00F0B4FD7E
:101EE00000F080FD6062B4F90C0000EE100AF8EE1C
:101EF000C00A9FED180A20EE801AD6ED020AC1EE44
:101F0000201AC4ED0A1AB4F90E0001EE100AB8EE58
:101F1000C11A21EE001AC1EE201AC4ED0B1AB4F951
:101F2000100001EE100AB8EEC11A21EE000A80EE90
:101F3000201A84ED0C1ABDEC048B70BD0C0000203F
:101F40009A999999999923400000AA43A4703D0A4F
:101F5000D743424033FA8E3C1FB504466B460E22EF
:101F60003B21D02000F0BCF8BDF8000040BAA080B2
:101F7000BDF8020040BAE080BDF8040040BA2081FC
:101F8000BDF8060040BA6081BDF8080040BAA081E3
:101F9000BDF80A0040BAE081BDF80C0040BA2082CA
:101FA0001FBD00003EB5044600208DF8080002AABF
:101FB0000221182000F084F89DF80800C00731D0F5
:101FC0006B4607220321182000F08AF89DF80600CE
:101FD000000727D4BDF900206282BDF9021000EE8F
:101FE000102AA182104ABDF90400E082B8EEC00AAE
:101FF000D2ED000A20EE200A84ED0D0A00EE101A40
:10200000D2ED010AB8EEC00A20EE200A84ED0E0AD5
:1020100000EE100AD2ED020AB8EEC00A20EE200A45
:1020200084ED0F0A3EBD00006C010020154A30B15E
:10203000012807D0022816D0032807D116E09FED0B
:10204000120A01E09FED110A82ED020A89B101290D
:1020500012D0022913D0032904D19FED0D0A00BF2D
:1020600082ED010A70479FED0B0AEDE79FED0A0A2A
:10207000EAE79FED0A0AF3E79FED090AF0E79FED13
:10208000090AEDE70C000020000003430000834232
:102090000000004533330342333383410000804660
:1020A000000000460000804510B50446FFF754FFCD
:1020B0002046FFF777FF2046BDE81040FFF7B8BE87
:1020C0003EB50A2300920124CDE901430A460146A8
:1020D00023460248FEF762FE3EBD000028000020B5
:1020E0003EB50A24CDE900320A4601460294012396
:1020F0000148FEF753FE3EBD2800002017B583B00F
:102100000A24012305AA8DE81C000A46014602485C
:10211000FEF746FF06B010BD28000020114808B5A4
:10212000016841F080010160016801F080010091C7
:10213000016841F001010160016801F001010091B5
:10214000016841F004010160016801F0040100919F
:10215000016841F002010160006800F00200009097
:1021600008BD000030380240FEE7FEE770477047C8
:10217000FEF7E2BF30B593B030216846FEF745F96F
:1021800014210CA8FEF741F91C480024016841F015
:1021900080510160006800F080501190184801687B
:1021A00041F4804101600068022500F480401190F4
:1021B0000120039010200490009506950820CDE999
:1021C00007406420CDE9090504200B906846FFF71D
:1021D00039F908B172B6FEE70F20CDE90C054FF4CE
:1021E0008050CDE90E4003210CA81094FFF740F871
:1021F000002801D072B6FEE713B030BD403802406F
:10220000007000400248016841F4700101607047AD
:1022100088ED00E070B5846B2068406994F8411047
:10222000C0F3C0100025212904D118B1E58420464F
:1022300000F08EF82068406994F84210C0F38010D6
:10224000222904D118B1E585204600F05AF8606CC7
:1022500040F0100060642046FFF7E6FA70BD10B54C
:102260000146806B096809684FF00002C9052ED449
:10227000C28501680C3151E8003F23F4807341E8C6
:102280000034002CF5D10168143151E8003F23F0EF
:10229000010341E80034002CF5D10168143151E804
:1022A000003F23F0400341E80034002CF5D1202109
:1022B00080F84210016B012909D101680C3151E805
:1022C000003F23F0100341E80034002CF5D14263B5
:1022D000016B012902D0FFF72BFB10BD818DFFF7A9
:1022E000A2FA10BD10B5806B01214163016B012979
:1022F00002D0FFF71EFB10BD818D4908FFF793FA4E
:1023000010BD01680C3151E8002F22F4907241E8B1
:102310000023002BF5D10168143151E8002F22F081
:10232000010241E80023002BF5D1016B012909D1FD
:1023300001680C3151E8002F22F0100241E800231F
:10234000002BF5D1202180F8421000210163704755
:1023500001680C3151E8002F22F0C00241E800234F
:10236000002BF5D1202180F84110704770B504464C
:1023700000680169E26821F440511143016121695B
:10238000A068E26908436169114308432168CA688B
:1023900049F20C639A430243CA6020684169A2690A
:1023A00021F440711143416131492068884202D0D3
:1023B0003049884202D1FFF705F801E0FEF7F2FF4D
:1023C000E2690023192164253226B2F5004F6268C4
:1023D00028D0A0FB0101930F9200FDF79FFF01465B
:1023E000B0FBF5F06FF01802504301EB800006EBF4
:1023F0000010B0FBF5F000F0F002B1FBF5F002EBDD
:102400000012B1FBF5F06FF01803584301EB8000A8
:1024100006EB0010B0FBF5F000F00F00216810444F
:10242000886070BDA0FB010192185B41FDF776FF4B
:102430000146B0FBF5F00201B1FBF5F06FF01803B7
:10244000584301EB800006EBC000B0FBF5F000F054
:10245000F80002EB4002B1FBF5F0584301EB8000BD
:1024600006EBC000B0FBF5F000F00700D6E7000077
:10247000001001400014014038B581620446828595
:10248000002013466064222284F84220E56B1B4A38
:10249000EA63E56B1A4A2A64E56B1A4AEA64E26B5E
:1024A00010650A462168E06B091DFEF76BFA20688B
:1024B000016840680090206948B120680C3050E8FD
:1024C000001F41F4807140E80012002AF5D1206815
:1024D000143050E8001F41F0010140E80012002ACA
:1024E000F5D12068143050E8001F41F0400140E869
:1024F0000012002AF5D1002038BD00005F2200083C
:10250000E5220008152200082DE9F84398461746F1
:102510000D460446089E24E0701C22D0FEF774FB92
:10252000A0EB0800B0421AD8CEB12068C1684907B4
:1025300017D5802D15D0402D13D00168C943090748
:102540000FD401680025406800902046FFF7D9FEAF
:102550000820606484F840500120BDE8F88303201F
:10256000FBE72068006835EA000004D00020B8428C
:10257000D2D00020F1E70120F9E7FEE70907090EB4
:10258000002804DB00F1E02080F80014704700F020
:102590000F0000F1E02080F8141D70472DE9F0478E
:1025A0004FF000080C0005464746C14601D0002602
:1025B00012E0012400262846FFF7CEFCB5F90C10E6
:1025C000B5F90E008844B5F910100744894403207A
:1025D000FEF710FA761CB6B2A642ECD300EE108AD3
:1025E000F8EEC00A00EE104AB8EE400A80EE801AFB
:1025F00000EE107AF8EEC00A00EE104AB8EE400A7B
:1026000085ED161A80EE801A00EE109AF8EEC00AD8
:1026100000EE104AB8EE400A85ED171A80EE801AD7
:1026200085ED181ABDE8F0872DED028B82B0FEF71C
:102630008BFDFFF79FFDFFF771FD6C4800240168DB
:1026400041F4001101600068224600F4001000907F
:1026500021461020FEF7DAFD1020FEF7C9FD65487F
:10266000634901604FF4E131C0E901140C21C460F9
:10267000C0E904418461C461FFF7D7F808B172B6BC
:10268000FEE75C485C49543801605C49C0E90114CC
:102690004FF48041C0E9034144618461C461046234
:1026A000FEF7B8FA08B172B6FEE7FFF7B3FB544F76
:1026B0004FF4FA717860FFF771FF4E4924226C31B4
:1026C0004C48FFF789F89FED4F8B4A4D3C46483503
:1026D0007868016888470A20FEF78CF97E68B0693F
:1026E00000F0B2FD53EC182B00F0C6FB00F07AF9B5
:1026F00020600020215C2954401CC0B20428F9D37A
:1027000096ED070AF6EE0C0A002020EE200A84ED72
:10271000000A215C2A18401CC0B211710428F8D3A9
:10272000306A00F091FD9FED391B53EC112B00F046
:10273000A3FB00F057F9206000202A18215C401C00
:10274000C0B211720428F8D396ED0A0A002084ED75
:10275000000A215C2A18401CC0B211730428F8D367
:1027600096ED0B0A002084ED000A215C2A18401C1B
:10277000C0B211740428F8D396ED0C0A002084ED41
:10278000000A215C2A18401CC0B211750328F8D336
:1027900096ED0D0A002084ED000A215C2A18401CE9
:1027A000C0B211760428F8D396ED0E0A002084ED0D
:1027B000000A215C2A18401CC0B211770428F8D303
:1027C00096ED0F0A002084ED000A215C2A18401CB7
:1027D000C0B282F820100428F7D3064964232422CB
:1027E00048310448FFF7A6F872E70000303802408D
:1027F000004400407C00002000540040A0860100FE
:102800000000002085EB51B81E85EB3F08AC1C5A38
:10281000643BF73F70B532202DED068B84B0FEF798
:10282000E9F800248DF804408DF8084001AA7521CC
:10283000D020FFF745FC9DF80400624D712803D0BD
:102840004FF4CA702880FEE71420288080226B2174
:10285000D020FFF753FC6420FEF7CCF800226B2158
:10286000D020FFF74BFC3220FEF7C4F827221921B5
:10287000D020FFF743FC3220FEF7BCF800221A21DB
:10288000D020FFF73BFC3220FEF7B4F803261822D5
:102890001B21D020FFF732FC3220FEF7ABF8224696
:1028A0001C21D020FFF72AFC3220FEF7A3F8214696
:1028B0003046FFF7BBFB02223721D020FFF71EFC7A
:1028C00002AA00211820FFF7FBFB9DF8080048280A
:1028D00001D02C80FEE70120288000220A21182048
:1028E000FFF70CFC3220FEF785F80F220A21182092
:1028F000FFF704FC3220FEF77DF86B46032210211F
:102900001820FFF7EDFB9DF80000803800F09CFADE
:102910009FED2D9B53EC192B00F0AEFA9FED2CABE5
:1029200053EC1A2B00F090F800F05CF800EE100A5F
:102930009FED298A294C20EE080A84ED000A9DF8B3
:102940000100803800F080FA53EC192B00F094FA63
:1029500053EC1A2B00F078F800F044F800EE100A5F
:1029600020EE080A84ED010A9DF80200803800F08C
:102970006BFA53EC192B00F07FFA53EC1A2B00F092
:1029800063F800F02FF800EE100A322020EE080A5B
:1029900084ED020AFEF72EF800220A211820FFF724
:1029A000ADFB3220FEF726F80D480221007801EB3E
:1029B0000010C2B20A211820FFF7A0FB04B0BDEC42
:1029C000068B70BD08000020000000000000703F72
:1029D000000000000000F03F9A99193E6C010020B1
:1029E0000C00002021F00042A2F16052B2F5801FDD
:1029F00001F0004328BFD2F17F6C0BD95FEA001CC5
:102A000043EAC20242EB507018BF704728BF20F063
:102A100001007047B2F5801FBCBF184670474FEAEF
:102A2000410C1CF5001F02D2084600F083BC70B5B3
:102A300000F0CCFA00000089FFF7F6BF4FF000402D
:102A4000A0F580007047000010B591EA030F48BF61
:102A500083F0004300F11683841A71EB030C05D256
:102A6000121943EB0C03001B61EB0C01DFF824E1AE
:102A70004FEA1154A4EB135C1EEA430F18BF9EEA01
:102A8000445F73D023EA0E03DCF1200E21EA0451E7
:102A900043F4801332D322FA0CFE10EB0E0023FA1B
:102AA0000CFE41EB0E01CCF1200E03FA0EFE10EBF2
:102AB0000E0051F10001B1F5801FCCF1200E32D291
:102AC00001EB045112FA0EF2BDE8104058BF7047F6
:102AD000401C38BF5FEA420218BF7047002814BF8D
:102AE00020F0010041F100014FEA410313F5001FFE
:102AF00038BF7047A1F1C04100F0B6BA012A43EBDC
:102B00000302ACF1200CDCF11F0E32BF4FF0000EBF
:102B100023FA0CF310EB030041EB0451B4EB115F0B
:102B2000D0D0A1EB045101F5801149085FEA3000D3
:102B300001EB04510ED350F1000038BF12FA0EFE23
:102B400008D1BDE81040C9E7401C38BF5FEA420227
:102B5000CAD1C3E7BDE810404FEA410313F5001F97
:102B600038BF7047A1F1C04100F07EBA9EEA445FD1
:102B700008D011EA5E0FBDE8104004BF01F000412B
:102B800000207047BDE8104070B500F01FFA00BF8C
:102B900064FBBE3E0000E0FF2DE9C04130B4DFF829
:102BA000A0C23CEA111418BF3CEA131400F0EC80F8
:102BB00081EA03051CEA111444EAD57418BF1CEA23
:102BC000131500F0C780A4EB05044FF0004545EA5B
:102BD000C12145EAC32341EA505143EA525304F16B
:102BE0007F74994204F500344FEAC0204FEAC222B4
:102BF00008BF904200F09C804FEA13650FF2401628
:102C0000765D4FEA134506FB05F7C7F1807706FBB3
:102C100007F74FEAD737A7FB03687642C8F5803835
:102C2000A7FB06CE38BFA8F1010807FB08E64FF066
:102C3000000EA6FB028CE6FB03CEDCF1000CCEF10D
:102C4000004E38BFAEF1010EA6FB0C584FF0000746
:102C50004FF00005E6FB0E87A1FB08C6A0FB07CEE0
:102C600016EB0E0645F10005E1FB076515F1E04E98
:102C70007EBFA4F580345FEA46066D4116F18007F9
:102C800045F100054FEA17274FEA066647EA056750
:102C9000A6F1DE46B6F1805F4FEA15251FD938460A
:102CA00024F0010C05EBC471BCF1FE6F01EB0C11BB
:102CB00002D8F0BCBDE8008124425CBF01F5801E53
:102CC0009EEAC47F02D4F0BCBDE80081244238D41F
:102CD000F0BCA1F1C041BDE8004100F0C5B94FEA28
:102CE000D22242EA43524FEAD323A7FB02864FEA9D
:102CF000D02040EA415007FB03661EEA0E0F4FEA60
:102D0000D12105FB026658BFA6EB0056B6EB005674
:102D10004FEA520E4EEAC37E18EB0E0E56EB530EE0
:102D2000BDD518EB02085E417F1C55F10005B6E7E2
:102D30004FF480154FF000074FF000064FF00008E9
:102D4000ADE7F0BC4FF0000001F1C04101F00041DF
:102D5000BDE8008111EA0C1F0CEA131500D00CE04D
:102D600013EA0C1F00F025804FF00000F0BC81EA50
:102D7000030101F00041BDE80081F0BCBDE8004165
:102D800081EA030100F070B9F0BCBDE8004170B504
:102D900000F01CF9097EFC3E00F007B881EA03014F
:102DA0004FF0000001F00041704781EA030100F09C
:102DB0005BB9F0BCBDE800414FF00000214970470D
:102DC000FFFDFBF9F7F5F4F2F0EEEDEBE9E8E6E4F0
:102DD000E3E1E0DEDDDBDAD8D7D5D4D3D1D0CFCD77
:102DE000CCCBCAC8C7C6C5C4C2C1C0BFBEBDBCBBB0
:102DF000BAB9B8B7B6B5B4B3B2B1B0AFAEADACABAB
:102E0000AAA9A8A8A7A6A5A4A3A3A2A1A09F9F9E84
:102E10009D9C9C9B9A999998979796959594939336
:102E2000929191908F8F8E8E8D8C8C8B8B8A8989CD
:102E30008888878786858584848383828281818050
:102E40000000FF070000F87F10F0004248BF40423A
:102E5000B0FA80F310FA03F10AD0C3F11D0303F5B1
:102E600080634FEA415002EB035202EBD1217047DD
:102E70004FF0000070470000DFF848C170B51CEA51
:102E8000111E1EBF1CEA13159EEA0C0F95EA0C0FCB
:102E900000F06F8081EA030423EA4C134EEAD47EEB
:102EA00021EA4C1141F4801143F48013AE44A1FB9C
:102EB000024CA0FB0365AEF17F7E361955EB0C0585
:102EC000A1FB034C4CF10003A0FB021C16EB0C060B
:102ED000654153F10003094218BF46F0010613F49F
:102EE000007F0BD14FEA03314FEA0530340341EA4A
:102EF000155140EA16506FF003020AE04FEAC32171
:102F00004FEAC520F40241EA555140EA56506FF0AD
:102F1000020202EB2E4201EB025585EACE710AD085
:102F20005FEA440C18BF24F0004450F1000041F166
:102F3000000120EAD47040F2FE7C624500D270BDF0
:102F4000A84214BF4FF080444FF04044002E08BF09
:102F50000024BEF1806FA8BFA1F1C041BDE8704060
:102F600080F282804FF0000001F1C04101F0004189
:102F700070479EEA0C0F0CEA131518BF95EA0C0F68
:102F800006D04FF0000081EA030E0EF0004170BD44
:102F900000F01CF88900013E00F007B800F009B805
:102FA0004FEA430C5FEA5C5C08D081EA030100F061
:102FB0005BB84FEA410C5FEA5C5CF6D14FF0000071
:102FC000014970470000FF070000F87F0EF1020E74
:102FD0002EF0030E5EF8046B364205D4012A43EB53
:102FE000030515F5001F12D8012841EB010C1CF553
:102FF000001F0CD80ED14FEAD17C15F5001F0CEB49
:103000004C0C0CF1020C08BF4CEBD37C04E04FF0ED
:10301000080C01E04FEAD37C0CEB4C0526FA05F6D0
:1030200006F00706B6F1040C06D20EEB860CBDE8DE
:1030300070404CF0010C6047DFE80CF0090B020215
:103040004FF000414FF00000A1F5002170BD19467E
:103050001046012851EB010418BFD4F5001484BFB9
:10306000002001F0004170BD0808A0F500114FEAF2
:103070003101704710B591EA030F48BF83F0004358
:103080003FF5EAAC841A71EB030C07D212198CF0ED
:10309000004C43EB0C03001B61EB0C01DFF8A4E1D7
:1030A0004FEA1154A4EB135C1EEA430F18BF9EEACB
:1030B000445F00F0B08023EA6E03524221EA0451DB
:1030C000C3EB6E0338BF5B1EDCF1200E25D322FA62
:1030D0000CFE10EB0E0043FA0CFE41EB0E01CCF19E
:1030E000200E03FA0EFE10EB0E0051F10001CCF1A0
:1030F000200E29D412FA0EF201EB0451BDE8104063
:1031000058BF7047401C1CBFB2F1004F70470028E9
:103110000CBF491C20F00100704712EB020E43EB7C
:10312000030218BF4FF0010E4EEA4202ACF1200C30
:10313000DCF11E0E54D943FA0CFE10EB0E0051F1D7
:10314000FF31CCF11E0ED5D50EF1010E12FA0EFE96
:10315000404141EB010101EB445C5FEA5C5C10D94A
:1031600010EBDE7001EB045138BFBEF1004FBDE83B
:10317000104018BF704700280CBF491C20F0010008
:10318000704730D24FEAD42C11F5001124F40064BA
:103190001BD0B1FA81F20B3AA41AA41ED2F120037B
:1031A000914030FA03F31943904001EBCC71002CAD
:1031B00001EB0451BDE81040A8BF704701F1C041C8
:1031C0004FF0000001F000417047B0FA80F310FAB0
:1031D00003F100D110BDE41A173C4805C90AE4E721
:1031E00001EB045110BD491001EB0451BDE8104042
:1031F0004FEA300002E04FF0000170474A0008BF7C
:103200000042F8D0B2F5001F28BF704701F000411E
:103210004FF0000070479EEA445F07D011EA5E0F4E
:10322000BDE8104004BF002100207047BDE81040F9
:1032300070B5FFF7CBFE00BF40DFF63E83F00041E4
:10324000104670470000E0FF43004FEAD30C4FEAFE
:103250003C0C43401FBF40070CF1605113F0FE4F80
:1032600070471CF0006F03D100200CF00041704744
:103270000CF0004343EA507010B540EACC0000F077
:103280000EF800BF000000924FEA0001FFF7ECBE0D
:103290004FF000414FF00000A1F5002170470EF102
:1032A000020E2EF0030E5EF8044B244204D44FEAC3
:1032B0004102B2F17F4F11D84FEA4003B3F17F4F83
:1032C0000CD80ED14FEAD07CB2F17F4F0CEB4C0CF6
:1032D0000CF1020C08BF4CEBD17C04E04FF0080C61
:1032E00001E04FEAD17C0CEB4C0324FA03F404F028
:1032F0000704B4F1040C06D20EEB840CBDE81040B8
:103300004CF0010C6047DFE80CF0070802024FF0B8
:103310000040A0F5800010BD0846420018BFD2F161
:10332000807288BF00F0004010BD4FF04070E1EEA9
:10333000100A7047FF2141EAD050C00570470006CF
:103340001016000610160000000000000000010228
:10335000030406070809000000000102030400003E
:10336000803300080000002028000000C40100088D
:10337000A833000828000020B0070000E001000882
:10338000000000000000000000000000010000003C
:10339000000000000000000001000000100000001C
:0833A000000000000024F4000D
:040000050800018965
:00000001FF
