:020000040800F2
:100000009006002089010008910100089301000872
:100010009501000897010008990100080000000000
:100020000000000000000000000000009B0100082C
:100030009D010008000000009F01000875030008F2
:10004000A3010008A3010008A3010008A301000800
:10005000A3010008A3010008A3010008A3010008F0
:10006000A3010008A3010008A3010008A3010008E0
:10007000A3010008A3010008A3010008A3010008D0
:10008000A3010008A3010008A3010008A3010008C0
:10009000A3010008A3010008A3010008A3010008B0
:1000A000A3010008A3010008A3010008A3010008A0
:1000B000A3010008A3010008A3010008A301000890
:1000C000A3010008A3010008A3010008A301000880
:1000D000A3010008A3010008A3010008A301000870
:1000E000A3010008A3010008A301000800F002F822
:1000F00000F03AF80AA090E8000C82448344AAF188
:100100000107DA4501D100F02FF8AFF2090EBAE885
:100110000F0013F0010F18BFFB1A43F0010318473B
:10012000A0170000C0170000103A24BF78C878C19B
:10013000FAD8520724BF30C830C144BF04680C60ED
:10014000704700000023002400250026103A28BF35
:1001500078C1FBD8520728BF30C148BF0B60704739
:100160001FB51FBD10B510BD00F044F81146FFF7D4
:10017000F7FF00F025FD00F062F803B4FFF7F2FF8F
:1001800003BC00F065F800000948804709480047B3
:10019000FEE7FEE7FEE7FEE7FEE7FEE7FEE7FEE737
:1001A000FEE7FEE704480549054A064B7047000094
:1001B00085030008ED000008900000209006002054
:1001C000900200209002002070477047704710B5E1
:1001D00000F008F8006810BD10B5044600F002F801
:1001E000046010BD00487047300000200048704790
:1001F000300000207546FFF7F9FFAE46050069465E
:10020000534620F00700854618B020B5FFF7CAFF17
:10021000BDE820404FF000064FF000074FF0000807
:100220004FF0000B21F00701AC46ACE8C009ACE888
:10023000C009ACE8C009ACE8C0098D46704710B5EC
:100240000446AFF300802046BDE81040FFF795BF9D
:1002500001491820ABBEFEE72600020070470000EF
:100260000848806940F010000649886106484068E7
:1002700040F44010044948600846406820F44000BB
:1002800048607047001002400010014010B500F0B7
:1002900001F810BD0CB500200190009033480068B3
:1002A00040F480303149086000BF3048006800F4F5
:1002B000003000900198401C0190009818B90198F6
:1002C000B0F5A06FF1D12948006800F4003010B1FA
:1002D0000120009001E0002000900098012843D107
:1002E0002348006840F01000214908600846006873
:1002F00020F0070008600846006840F0020008602F
:100300001A484068194948600846406848600846ED
:10031000406840F4806048600846406820F47C10E3
:1003200048600846406840F4E810486008460068A5
:1003300040F08070086000BF0C48006800F000705A
:100340000028F9D00948406820F0030007494860B8
:100350000846406840F00200486000BF034840681B
:1003600000F00C000828F9D10CBD0000001002407C
:100370000020024002480068401E014908607047A2
:100380001400002010B51348006840F00100114926
:10039000086008464068104908400E494860084611
:1003A00000680E4908400B4908600846006820F4C0
:1003B000802008600846406820F4FE0048604FF442
:1003C0001F008860FFF762FF4FF00060044908607B
:1003D00010BD0000001002400000FFF8FFFFF6FE15
:1003E00008ED00E00E48806940F400600C49886127
:1003F00000200C4908800846008840F080000880F2
:1004000047200849283108804FF6FF70091D0880F1
:100410000448008840F0010002490880704700004D
:1004200000100240002C01401348806944F204018E
:100430000843114988611148006840F40B600F4976
:1004400008600846006820F4E86008600B4808303F
:10045000006840F4806009490831086041F64C505A
:1004600007490880081D008842F20C01084304492E
:10047000091D088070470000001002400408014078
:100480000838014000BF0548008800F0200000281F
:10049000F9D00248001D0088C0B270470038014002
:1004A0000549088000BF0449091F098801F040017F
:1004B0000029F8D07047000004380140490050EA94
:1004C000C12018BF04204A0D18BF40F0010040F2BF
:1004D000FF72B2EB515F08BF40F00200012808BF75
:1004E000052070472DE9F74F144694B00021C4E968
:1004F00002111599079121F00045C9498D4206DC8A
:100500001599C4E9000117B00020BDE8F08FC54976
:10051000DFF814A3A9423CDD0799C44E0029C44F5B
:10052000C44A1599534619DD00F0D2FF554506D04F
:10053000C14AC24B00F0CCFFC4E900010AE04FF011
:10054000D352BE4B00F0C4FF32463B4600F0C0FF22
:10055000C4E9000117B00120BDE8F08F00F04CFCA9
:10056000554506D0B44AB54B00F046FCC4E900013D
:100570000AE04FF0D352B14B00F03EFC32463B460E
:1005800000F03AFCC4E9000117B04FF0FF30BDE8BD
:10059000F08FAB49A942159978DB21F000418346E1
:1005A0008846A84AA84B00F089FE0022A74B00F01D
:1005B00023FC00F029FE099000F055FE06460F4688
:1005C0009C4A534600F07AFE43465A4600F074FFB8
:1005D00080468A46984A994B3046394600F06EFE6E
:1005E0002A0D01250B924246534600F065FF032D6C
:1005F000C4E9000139D00B98C1F30A51401A05EB48
:1006000045111139814230DA9148C346784400EBF4
:100610000510CDF80CA00C90D0E9002330463946E7
:1006200000F04CFE02460B46049106905846039992
:1006300000F04EFF80468A4602460B465846039914
:1006400000F046FF049B069A00F042FF83460C9898
:1006500003913946D0E90223304600F02FFE5A4676
:10066000039B00F035FF6D1CBDE707980028A2BF73
:10067000099817B0BDE8F08F616881F000416160B2
:10068000099817B04042BDE8F08FFFE784461598FF
:10069000C1F31301C0F30A50A0F2F5304FEA60181D
:1006A00000F01F06C6F1200013900020069007906E
:1006B00041F4801E05206D4676B1664A08EB0001C4
:1006C0007A4452F8213002EB8101B3404A68139911
:1006D00022FA01F1194305E05F4908EB0002794471
:1006E00051F82210A1FB0E27A1FB0C131A449A42C9
:1006F00034BF0123002303EB070A05EB8003D3E992
:1007000001B70F448F4234BF0121002193448B4431
:1007100011B1934502D903E0934501D2012100E0D4
:100720000021C3E901B7514445F82010011EA0F192
:100730000100C1DC0298059F00F10050800F12906B
:100740000298DDE90356800000F08DFD83462846BF
:100750000D9100F09FFD6FF01D0200F0DAFFCDE972
:100760000E01304600F096FD6FF03D0200F0D1FF23
:1007700080468A46384600F08DFD6FF05D0200F03D
:10078000C8FF074642465346119100F035FBDDE9AC
:100790000E2300F031FB5A460D9B00F02DFB002587
:1007A0000E465A4628460D9B00F092FEDDE90E23C8
:1007B00000F08EFE4246534600F08AFE3A46119BF8
:1007C00000F07AFEDFF898A0244A534600F076FD48
:1007D00007468846234A244B3146284600F06EFDE2
:1007E0003A46434600F008FB074688464FF0A842C9
:1007F00053463146284600F061FD3A46434600F034
:10080000FBFA159A12F0004F04D0129A81F00041C1
:1008100052421292C4E90001129817B0BDE8F08F5D
:10082000FB21E93F7CD90240FB21F93F7370032E85
:100830008A19A33B000040543163621A61B4D03D71
:10084000FB21394183C8C96D305FE43F0000E03FC0
:10085000C01100003C1100001E110000182D44546E
:10086000FB21F93D3326A611460B113C2DE9FF4D26
:1008700021F0004807460C46B8F1795F08DA00F02D
:10088000C3FC002801BF0020324904B0BDE8F08D50
:100890003A4623461046194600F010FD054602462A
:1008A0002D480E460B460621784400F05DF82A4696
:1008B000334600F003FDDDE9022382468B463846CD
:1008C000214600F0FBFC04460F4652465B46284694
:1008D000314600F0F3FC22463B4600F0F9FD0746A6
:1008E0008A464FF0FF322846314600F012FF1B4A7D
:1008F00090450ADA3A46534600F0EAFD04B0002279
:10090000BDE8F04D134B00F0D7BD154A4245A8BFD6
:10091000A8F500154FF00004B8BF124D22462B4633
:1009200000F0D6FD0646884622462B46002009499F
:1009300000F0CEFD04460D463A4653463046414649
:1009400000F0C6FD04B022462B46BDE8F04D00F095
:10095000B3BD00000000F03FF40E00003333D33F7E
:100960000000E93F0000D23F2DE9F0414F1E00EBAF
:10097000C7010446D1E9000115461E4637F00602BC
:100980000DD02A46334600F099FC7F1E04EBC703C6
:10099000D3E9002300F030FA37F00602F1D1022F3C
:1009A00025D0042F13D0062F18BFBDE8F0812A46AA
:1009B000334600F083FCD4E90A2300F01DFA2A46EE
:1009C000334600F07BFCD4E9082300F015FA2A46F0
:1009D000334600F073FCD4E9062300F00DFA2A46F2
:1009E000334600F06BFCD4E9042300F005FA2A46F4
:1009F000334600F063FCD4E9022300F0FDF92A46F7
:100A0000334600F05BFCD4E90023BDE8F04100F080
:100A1000F3B900002DE9FF4D054621F0004084B0F8
:100A20000C46B0F1795F0BDA2846FFF747FD042842
:100A300008BF00F06FF8284608B02146BDE8F08DE9
:100A40002A460B46104600F039FC06460F462A4659
:100A5000234600F033FC804626488A4632463B4611
:100A600005217844FFF780FF83461098029160B318
:100A7000214A224B4046514600F020FCCDE90001BE
:100A80005A4640465146029B00F018FC8246884672
:100A9000DDE906014FF0FF3200F03BFE52464346CF
:100AA00000F016FD32463B4600F008FCDDE9062367
:100AB00000F00EFDDDE9002300F00AFD08B02A4633
:100AC0002346BDE8F04D00F0F7BC0B465A463046D1
:100AD000394600F0F3FB084A084B00F08DF9424616
:100AE000534600F0EBFB08B02A462346BDE8F04D24
:100AF00000F082B9320E0000495555555555C5BF15
:100B0000012200F006BE002213461046114600F0F6
:100B100023BA0000024A0020110700F0FABD0000CD
:100B200001FDFFFF00B5244B21F0004287B09A423F
:100B3000DCBF0022134629DD204B9A4208D140B980
:100B40004FF00100FFF748FBFFF7DDFF07B000BDE6
:100B500003DBFFF7D5FF07B000BD02AAFFF7C2FC19
:100B600010F0030104BF0DF1080C9CE80F000DD03C
:100B7000012001290ED0022914D00DF1080C00909B
:100B80009CE80F00FFF746FF07B000BDFFF76EFEC1
:100B900007B000BD0DF1080C00909CE80F00FFF7B6
:100BA00039FF05E00DF1080C9CE80F00FFF75EFE31
:100BB00007B081F0004100BDFB21E93F0000F07F5C
:100BC00008B5FFF74DFBFFF70DFCFFF72DFC00F01C
:100BD000A9F848E04FF0000A44E0FFF753FC22492F
:100BE0000870504600F03FFB0646204A204B00F0BC
:100BF00065FB044600F046F8804600F0CBF81D493E
:100C000008600846006800901B48407910B9302001
:100C1000194948710AF1010A002404E01DF8040092
:100C2000FFF73EFC641C042CF8DB504600F01BFB75
:100C30008046124A124B00F041FB0646FFF772FF56
:100C4000044600F0A7F80B490860084600680090C9
:100C5000002404E01DF80400FFF722FC641C042CAF
:100C6000F8DB00BFB9E7B5E7100000207B14AE4702
:100C7000E17A843F0C000020000000209A999999A5
:100C80009999B93F00B5254B21F0004287B09A42AF
:100C900003DC0022134600922BE0214B9A4208D13C
:100CA00040B94FF00100FFF797FAFFF72CFF07B0AC
:100CB00000BD03DBFFF724FF07B000BD02AAFFF76A
:100CC00011FC10F003014FF001000DD0012914D0E8
:100CD00002291AD00DF1080C9CE80F00FFF7C6FDA1
:100CE00007B081F0004100BD0DF1080C00909CE8B8
:100CF0000F00FFF78FFE07B000BD0DF1080C9CE858
:100D00000F00FFF7B3FD07B000BD0DF1080C009018
:100D10009CE80F00FFF77EFEE2E70000FB21E93FC1
:100D20000000F07F30B5184800684FF47A72B0FBCD
:100D3000F2F1481EB0F1807F00D31BE0481E4FF057
:100D4000E022506150170F22002804DB13071C0E0D
:100D50000E4B1C5406E013071D0E0D4B00F00F0444
:100D6000241F1D5500BF00204FF0E0229061072096
:100D7000106100BF4FF0E020006920F001004FF04B
:100D8000E021086130BD00001C00002000E400E00C
:100D900018ED00E021F00042A2F16052B2F5801F90
:100DA00001F0004328BFD2F17F6C0BD95FEA001C31
:100DB00043EAC20242EB507018BF704728BF20F0D0
:100DC00001007047B2F5801FBCBF184670474FEA5C
:100DD000410C1CF5001F02D2084600F063BC70B540
:100DE00000F016FB00000089FFF7F6BF4FF000404F
:100DF000A0F580007047000010B591EA030F48BFCE
:100E000083F0004300F16C83841A71EB030C05D26C
:100E1000121943EB0C03001B61EB0C01DFF824E11A
:100E20004FEA1154A4EB135C1EEA430F18BF9EEA6D
:100E3000445F73D023EA0E03DCF1200E21EA045153
:100E400043F4801332D322FA0CFE10EB0E0023FA87
:100E50000CFE41EB0E01CCF1200E03FA0EFE10EB5E
:100E60000E0051F10001B1F5801FCCF1200E32D2FD
:100E700001EB045112FA0EF2BDE8104058BF704762
:100E8000401C38BF5FEA420218BF7047002814BFF9
:100E900020F0010041F100014FEA410313F5001F6A
:100EA00038BF7047A1F1C04100F000BB012A43EBFD
:100EB0000302ACF1200CDCF11F0E32BF4FF0000E2C
:100EC00023FA0CF310EB030041EB0451B4EB115F78
:100ED000D0D0A1EB045101F5801149085FEA300040
:100EE00001EB04510ED350F1000038BF12FA0EFE90
:100EF00008D1BDE81040C9E7401C38BF5FEA420294
:100F0000CAD1C3E7BDE810404FEA410313F5001F03
:100F100038BF7047A1F1C04100F0C8BA9EEA445FF3
:100F200008D011EA5E0FBDE8104004BF01F0004197
:100F300000207047BDE8104070B500F069FA00BFAE
:100F400064FBBE3E0000E0FF02494FF0000000F0ED
:100F5000AEBB00BF0000F87F2DE9C04130B4DFF820
:100F6000A0C23CEA111418BF3CEA131400F0EC8054
:100F700081EA03051CEA111444EAD57418BF1CEA7F
:100F8000131500F0C780A4EB05044FF0004545EAB7
:100F9000C12145EAC32341EA505143EA525304F1C7
:100FA0007F74994204F500344FEAC0204FEAC22210
:100FB00008BF904200F09C804FEA13650FF2401684
:100FC000765D4FEA134506FB05F7C7F1807706FB10
:100FD00007F74FEAD737A7FB03687642C8F5803892
:100FE000A7FB06CE38BFA8F1010807FB08E64FF0C3
:100FF000000EA6FB028CE6FB03CEDCF1000CCEF16A
:10100000004E38BFAEF1010EA6FB0C584FF00007A2
:101010004FF00005E6FB0E87A1FB08C6A0FB07CE3C
:1010200016EB0E0645F10005E1FB076515F1E04EF4
:101030007EBFA4F580345FEA46066D4116F1800755
:1010400045F100054FEA17274FEA066647EA0567AC
:10105000A6F1DE46B6F1805F4FEA15251FD9384666
:1010600024F0010C05EBC471BCF1FE6F01EB0C1117
:1010700002D8F0BCBDE8008124425CBF01F5801EAF
:101080009EEAC47F02D4F0BCBDE80081244238D47B
:10109000F0BCA1F1C041BDE8004100F007BA4FEA41
:1010A000D22242EA43524FEAD323A7FB02864FEAF9
:1010B000D02040EA415007FB03661EEA0E0F4FEABC
:1010C000D12105FB026658BFA6EB0056B6EB0056D1
:1010D0004FEA520E4EEAC37E18EB0E0E56EB530E3D
:1010E000BDD518EB02085E417F1C55F10005B6E73F
:1010F0004FF480154FF000074FF000064FF0000846
:10110000ADE7F0BC4FF0000001F1C04101F000413B
:10111000BDE8008111EA0C1F0CEA131500D00CE0A9
:1011200013EA0C1F00F025804FF00000F0BC81EAAC
:10113000030101F00041BDE80081F0BCBDE80041C1
:1011400081EA030100F0B2B9F0BCBDE8004170B51E
:1011500000F05EF9097EFC3E00F007B881EA030169
:101160004FF0000001F00041704781EA030100F0F8
:101170009DB9F0BCBDE800414FF000002149704727
:10118000FFFDFBF9F7F5F4F2F0EEEDEBE9E8E6E44C
:10119000E3E1E0DEDDDBDAD8D7D5D4D3D1D0CFCDD3
:1011A000CCCBCAC8C7C6C5C4C2C1C0BFBEBDBCBB0C
:1011B000BAB9B8B7B6B5B4B3B2B1B0AFAEADACAB07
:1011C000AAA9A8A8A7A6A5A4A3A3A2A1A09F9F9EE1
:1011D0009D9C9C9B9A999998979796959594939393
:1011E000929191908F8F8E8E8D8C8C8B8B8A89892A
:1011F00088888787868585848483838282818180AD
:101200000000FF070000F87F4FEA41034FEA535305
:10121000A3F58063D3F11E03C8BFD3F1210C0CDD0D
:101220004FF0004242EAC12242EA505232FA03FC35
:101230008CEAE17CACEBE1707047102BC4BF00205E
:10124000704703F5787CBCF1FF3F04D06FF000429B
:1012500082EA2100704770B500F0DAF849922480E4
:1012600000207047F2E710F0004248BF4042B0FA59
:1012700080F310FA03F10AD0C3F11D0303F5806374
:101280004FEA415002EB035202EBD12170474FF07D
:1012900000007047B0FA80F310FA03F10AD0C3F1EE
:1012A0001D0303F580634FEA41504FEA035202EBFE
:1012B000D12170474FF0000070470000DFF848C1AF
:1012C00070B51CEA111E1EBF1CEA13159EEA0C0F16
:1012D00095EA0C0F00F06F8081EA030423EA4C13B7
:1012E0004EEAD47E21EA4C1141F4801143F480137C
:1012F000AE44A1FB024CA0FB0365AEF17F7E361924
:1013000055EB0C05A1FB034C4CF10003A0FB021CA8
:1013100016EB0C06654153F10003094218BF46F075
:10132000010613F4007F0BD14FEA03314FEA053079
:10133000340341EA155140EA16506FF003020AE007
:101340004FEAC3214FEAC520F40241EA555140EA71
:1013500056506FF0020202EB2E4201EB025585EA75
:10136000CE710AD05FEA440C18BF24F0004450F15B
:10137000000041F1000120EAD47040F2FE7C624599
:1013800000D270BDA84214BF4FF080444FF04044DB
:10139000002E08BF0024BEF1806FA8BFA1F1C0419C
:1013A000BDE8704080F282804FF0000001F1C04142
:1013B00001F0004170479EEA0C0F0CEA131518BFAC
:1013C00095EA0C0F06D04FF0000081EA030E0EF0F4
:1013D000004170BD00F01CF88900013E00F007B824
:1013E00000F009B84FEA430C5FEA5C5C08D081EA80
:1013F000030100F05BB84FEA410C5FEA5C5CF6D198
:101400004FF00000014970470000FF070000F87F1F
:101410000EF1020E2EF0030E5EF8046B364205D478
:10142000012A43EB030515F5001F12D8012841EBF3
:10143000010C1CF5001F0CD80ED14FEAD17C15F51C
:10144000001F0CEB4C0C0CF1020C08BF4CEBD37CD6
:1014500004E04FF0080C01E04FEAD37C0CEB4C05A4
:1014600026FA05F606F00706B6F1040C06D20EEBD6
:10147000860CBDE870404CF0010C6047DFE80CF0D2
:10148000090B02024FF000414FF00000A1F50021CE
:1014900070BD19461046012851EB010418BFD4F560
:1014A000001484BF002001F0004170BD0808A0F5C1
:1014B00000114FEA3101704791EA030F10B581F036
:1014C00000413FF5A1AC83F0004300F009B80000F3
:1014D00010B591EA030F48BF83F000433FF594AC89
:1014E000841A71EB030C07D212198CF0004C43EBF9
:1014F0000C03001B61EB0C01DFF8A4E14FEA11546F
:10150000A4EB135C1EEA430F18BF9EEA445F00F091
:10151000B08023EA6E03524221EA0451C3EB6E030A
:1015200038BF5B1EDCF1200E25D322FA0CFE10EB37
:101530000E0043FA0CFE41EB0E01CCF1200E03FA33
:101540000EFE10EB0E0051F10001CCF1200E29D45B
:1015500012FA0EF201EB0451BDE8104058BF70477B
:10156000401C1CBFB2F1004F704700280CBF491C43
:1015700020F00100704712EB020E43EB030218BF8C
:101580004FF0010E4EEA4202ACF1200CDCF11E0ECF
:1015900054D943FA0CFE10EB0E0051F1FF31CCF19F
:1015A0001E0ED5D50EF1010E12FA0EFE404141EB92
:1015B000010101EB445C5FEA5C5C10D910EBDE706A
:1015C00001EB045138BFBEF1004FBDE8104018BF19
:1015D000704700280CBF491C20F00100704730D232
:1015E0004FEAD42C11F5001124F400641BD0B1FA99
:1015F00081F20B3AA41AA41ED2F12003914030FAD2
:1016000003F31943904001EBCC71002C01EB045122
:10161000BDE81040A8BF704701F1C0414FF0000085
:1016200001F000417047B0FA80F310FA03F100D1E5
:1016300010BDE41A173C4805C90AE4E701EB045160
:1016400010BD491001EB0451BDE810404FEA3000D5
:1016500002E04FF0000170474A0008BF0042F8D096
:10166000B2F5001F28BF704701F000414FF00000A5
:1016700070479EEA445F07D011EA5E0FBDE8104054
:1016800004BF002100207047BDE8104070B5FFF78F
:10169000BFFE00BF40DFF63E83F0004110467047BA
:1016A0000000E0FFFF2141EAD050C00570470CF078
:1016B0000F03092B08BF082000F059800A2B0BD01C
:1016C000082B18BF704708BF1CF0400F0AD04FF01E
:1016D00000004FF0000170471CF0400F18BF4FF0A2
:1016E000004070471CF0100F08D020F0704300F04D
:1016F0007F4242EAD3014FEA4370704700F06040F6
:1017000021F07F4242EA000201F07F4040EA72701D
:1017100070474FF0FF0C4CF4E06C1CEA11531CBFF7
:101720009CEA030C9445C2BFDA4201EB02517047B8
:10173000002B0DD0BCF1000F0FD0002A01F00041AA
:10174000A4BF41F0E04141F07F614FF000007047DD
:1017500001F000414FF00000704750EA01334FF0B4
:101760009B0C18BF4CF0806C7FF4EEAB70471CF400
:10177000801F11D01CF4E02F03D06FEACC31490058
:1017800070474FF04050EFF3008222F0704242EA7F
:10179000000282F3008870474FF00000704700009D
:1017A0004C5555555555A53F7751C1166CC156BF7F
:1017B0009015CB19A001FA3EAD529C804F7E92BE8F
:1017C000C4B1B4BD9EEE213ED43888BEE9FAA8BDAE
:1017D00000004054FB21F93F3163621A61B4D03DEF
:1017E0000000601A61B4D03D7370032E8A19A33BC8
:1017F0000000002E8A19A33BC14920259A837B391A
:1018000000000000000000006E83F9A22915444E7C
:10181000D15727FCC0DD34F5999562DB4190433CFC
:10182000AB6351FE61C5BBDE3A6E24B7E0D24D42D8
:10183000EA2E49061C92D1091CEB1DFE3EA729B1D8
:10184000F53582E88444BB2E26709CE9417E5FB466
:1018500039D69139F43953838B5F849C3B28F9BD89
:10186000FF97F81F0F9805DE8B112FEF1F6D0A5A97
:10187000CF7E366DB709CB27663F464F2DEA5F9E78
:10188000C7BA27757BF1E5EBF739073DEA92528A33
:10189000B15FFB6B085D8D1FA6F810111111813F20
:1018A000D561C119A0012ABF7DFEB157E31DC73E16
:1018B000EB9C2B8AE6E55ABE7CD5CF5A3AD9E53D5A
:1018C000E018000800000020300000002801000897
:1018D00010190008300000206006000044010008D4
:1018E00000000000000000000000000000000000F8
:1018F00000000000000000000000000000A24A04F8
:1019000000000000000000000102030406070809AF
:04000005080000ED02
:00000001FF
