:020000040800F2
:10000000080700208901000827160008FD0F0008D6
:10001000251600088F02000899160008000000004D
:100020000000000000000000000000002B16000887
:100030009102000800000000291600082D16000893
:10004000A3010008A3010008A3010008A301000800
:10005000A3010008A3010008A3010008A3010008F0
:10006000A3010008A3010008A3010008A3010008E0
:10007000A3010008A3010008A3010008A3010008D0
:10008000A3010008A3010008A3010008A3010008C0
:10009000A3010008A3010008A3010008A3010008B0
:1000A000A3010008A3010008A3010008A3010008A0
:1000B000A3010008A3010008A3010008A301000890
:1000C000A3010008A3010008A3010008A301000880
:1000D000A3010008A3010008A3010008A301000870
:1000E000A3010008A3010008A301000800F002F822
:1000F00000F03AF80AA090E8000C82448344AAF188
:100100000107DA4501D100F02FF8AFF2090EBAE885
:100110000F0013F0010F18BFFB1A43F0010318473B
:10012000841F0000A41F0000103A24BF78C878C1C3
:10013000FAD8520724BF30C830C144BF04680C60ED
:10014000704700000023002400250026103A28BF35
:1001500078C1FBD8520728BF30C148BF0B60704739
:100160001FB51FBD10B510BD00F058F81146FFF7C0
:10017000F7FF01F0A5FA00F076F803B4FFF7F2FFFD
:1001800003BC00F07DF8000009488047094800479B
:10019000FEE7FEE7FEE7FEE7FEE7FEE7FEE7FEE737
:1001A000FEE7FEE704480549054A064B7047000094
:1001B00097160008ED00000808010020080700203D
:1001C00008030020080300204FF0000200B513468A
:1001D00094469646203922BFA0E80C50A0E80C5067
:1001E000B1F12001BFF4F7AF090728BFA0E80C5018
:1001F00048BF0CC05DF804EB890028BF40F8042B11
:1002000008BF704748BF20F8022B11F0804F18BF7D
:1002100000F8012B7047704770477047754600F033
:100220002BF8AE4605006946534620F00700854688
:1002300018B020B5FFF7B6FFBDE820404FF000062C
:100240004FF000074FF000084FF0000BAC46ACE851
:10025000C009ACE8C009ACE8C009ACE8C00921F0AD
:1002600007018D46704710B50446AFF30080204665
:10027000BDE81040FFF781BF004870471000002024
:1002800001491820ABBEFEE7260002007047FEE7DA
:1002900070470000B0B5044600F0DEF8054605489A
:1002A000611C007818BF044400F0D6F8401BA0423F
:1002B000FAD3B0BD000000202DE9FC4F594A0423B9
:1002C0004FF0000B4FF001084FF00F0E4FF00009F8
:1002D0000025904208BF032300930B6833FA05F210
:1002E00008BFBDE8FC8F08FA05F2134200F09680C3
:1002F0004F68032F16D9112F24D0122F26D04D4B23
:100300009F4213D04C4B9F4210D04C4B9F420DD07C
:100310004B4B9F420AD04B4B9F4207D04A4B9F42C8
:1003200004D020E0DFE807F00216191D8B6833B116
:10033000012B14BF426102614FF0080913E04FF036
:10034000040910E0CB6803F104090CE0CB6803F169
:100350000C0908E0D1F80C9005E0CB6803F108091E
:1003600001E04FF000095B460646082D28BF203B00
:1003700028BF043637680EFA03F427EA040409FAA2
:1003800003F323433360CB79DB0647D5284B264E56
:100390001C461B68A6F57E7643F0010323602368A4
:1003A0000BF00C0C03F001030193019CAC0856F810
:1003B00024700EFA0CF327EA030A244B984208D063
:1003C000234B984207D0234B9842009B08BF02233F
:1003D00002E0002300E0012303FA0CF343EA0A03DE
:1003E00046F824304F68104CFB02A36854BF934377
:1003F00013430E4EA360BB02336854BF93431343B1
:100400003360BB03636854BF934313436360FB03D0
:10041000236854BF23EA02021A4322600BF1040B43
:1004200001355AE700140140000401400C0401406A
:1004300018100240000011100000121000002110DE
:1004400000002210000031100000321000080140AE
:10045000000C01400010014001480068704700BFD7
:1004600000010020F8B560B3044690F83D0028B9BB
:10047000002084F83C00204600F08CFA242084F808
:100480003D002068016821F001010160016841F42C
:1004900000410160016821F40041016000F0CAFBE5
:1004A00049494A4B002288424FF0000138BF0121E0
:1004B000984238BF01226368454DAB4238BF0A46B7
:1004C0000AB10120F8BD4349434EB0FBF1F2216867
:1004D000B3424D6825F03F0545EA02054D600D6ABF
:1004E00025F03F0511D801322A430A625A0001382B
:1004F000B0FBF2F04CF6FF7301306FF31F300428AD
:1005000098BF0420CA699A4337E04FF49676724345
:100510004FF47A76B2FBF6F2013801322A430A62CE
:10052000CA694CF6FF75AA43A56845B119265E4312
:10053000B0FBF6F60427013667F31F3606E003EB3F
:100540004306B0FBF6F601366FF31F36360509D0C9
:1005500055B119256B43B0FBF3F00423013063F36D
:100560001F3008E0012008E003EB4303B0FBF3F089
:1005700001306FF31F3040F400401043C861E06960
:100580000A6804F10C0622F0C0021043226A1043EC
:100590000860886848F2FF3290436CCE18431043DD
:1005A0008860C86820F0FF0028433043C8600868AE
:1005B00040F00100086000202021206484F83D10F4
:1005C000206384F83E00F8BD80841E0000093D00D1
:1005D000A186010040420F00A08601002DE9F04FE6
:1005E00085B0044600201F4616460D460490FFF7CE
:1005F00033FF814694F83D0020280CD1E349204682
:1006000001221923CDF8009000F018FE18B994F8D3
:100610003C00012803D1022005B0BDE8F08F012283
:1006200084F83C2022680DF13808136898E803012B
:10063000DB0703D1136843F001031360136823F44D
:1006400000631360222284F83D20402284F83E207B
:100650000022226461856062608DCD493246E1628C
:100660002085204629463B46CDE9008900F0E0FC84
:10067000002840F0F080218D01290DD011BB002011
:10068000039020684169039181690391039901688E
:1006900041F40071016037E02068016821F4806155
:1006A0000160EFF3108072B600200390206841696A
:1006B0000391816903910399016841F4007101601C
:1006C00062B621E020680229026813D142F4006179
:1006D0000160EFF3108072B600200390206841693A
:1006E0000391816903910399016821F4806101609C
:1006F00062B609E042F48061016000210391416922
:100700000391806903900398208D584FDFF8BCA8AF
:1007100046F2A81B2325010400F09F8086B2032E19
:1007200009D8012E23D1204641464A4600F01DFE3D
:10073000002874D08FE0204641464A4600F015FE5E
:10074000002840F088802068616A00690870608D28
:1007500001386085606A2168421C6262208D013820
:1007600020854B695B07D6D5086910705BE0204691
:10077000394600224346CDF8009000F05FFD022E7E
:1007800017D1002867D1EFF3108072B62068616A34
:10079000026842F40072026000690870606A013009
:1007A0006062608D01386085208D0138208562B6D9
:1007B00035E000284FD12068016821F48061016094
:1007C000EFF3108072B62068616A00690870608D6E
:1007D00001386085606A01306062218D01392185B0
:1007E000DAF80010B1FBFBF1694304910499013977
:1007F0000491049909B321684A695207F6D50A6839
:1008000042F400720A6009690170606A0130606236
:10081000208D01382085608D0138608562B62068A2
:10082000616A00690870606A01306062208D013879
:100830002085618D013961856DE7002020212063CD
:1008400084F83D1084F83E00216C41F020012164C1
:1008500062B684F83C000120DEE6202084F83D00EA
:10086000002084F83C0084F83E00D5E60400010036
:100870002DE9FE43994616460F460446FFF7ECFD68
:10088000054694F83D0020280BD14049204601221E
:100890001923009500F0D2FC18B994F83C00012807
:1008A00002D10220BDE8FE83012284F83C202268A8
:1008B0000DF12808136898E80301DB0703D11368DA
:1008C00043F001031360136823F4006313602122D3
:1008D00084F83D20402284F83E2000222264618575
:1008E0006062608D2A493246E162208520463946A1
:1008F0004B46CDE9008500F01BFC10B10120BDE89E
:10090000FE83208D000422D0204641462A4600F076
:100910005FFD10BB616A2268084610F8013B136155
:10092000638D013B63856062238D581E2085566967
:10093000070418BF16F00406E4D0487802311061AD
:10094000981E20856162618D01396185DAE7204654
:1009500041462A4600F048FC40B1206C0428CDD125
:100960002068016841F400710160C7E720680168F0
:1009700041F400710160202084F83D00002084F8DB
:100980003C0084F83E00BDE8FE8300BF020010007A
:100990000000FFFF10B586B00021CDE90411CDE9BC
:1009A00002110168114881421DD13B4C00F53840CD
:1009B000216841F008012160216801F008010191DE
:1009C0000321059112210391C0210291019902A9ED
:1009D000FFF772FC606840F400106060606800F42B
:1009E00000100190019806B010BD00BF00540040F7
:1009F0001A48034900780A6810440860704700BF2D
:100A00000001002080B58848016841F010010160B4
:100A1000032000F061F80F2000F004F800F020F847
:100A2000002080BD70B50D4E044630784FF47A71C9
:100A3000B1FBF0F084490968B1FBF0F000F0CAFAAC
:100A400001250F2C08D838B94FF0FF30214600227D
:100A5000002500F025F87460284670BD00000020D5
:100A600082B00D480222016841F001010160016875
:100A700001F0010101910199416841F0805141600B
:100A8000406800F08050009000980448016862F3CC
:100A90001A61016002B07047181002400400014062
:100AA000B0B5134B4FF0FF351B68C3F30223DC1EB8
:100AB00083F0070338BF0024042B28BF042305FA62
:100AC00003F3994305FA04F3A1409A431143BDE8A7
:100AD000B04000F0E3BD00BF05494FF6FF030A68D0
:100AE0001A4060F30A22034810430860704700BFB1
:100AF0000CED00E00000FA052DE9F843002800F0B5
:100B00009080884648490446086800F00700404540
:100B10000AD2086820F0070040EA08000860086868
:100B200000F0070040457CD12068564B894681077C
:100B300011D5410703D5196841F4E0611960010737
:100B400003D5196841F460511960A1681A6822F050
:100B5000F00211431960C0072BD06068012804D14E
:100B600053F8041C890309D45BE053F8041C0228E1
:100B700002D1890102D454E0890752D519681D4673
:100B800021F0030108431860FFF766FC064641F2B6
:100B90008837606829682B4601F00C01B1EB800FA3
:100BA00007D0FFF759FC801BB842F2D90320BDE8FB
:100BB000F883D9F8000000F0070040450DD9D9F8B6
:100BC000000020F0070040EA0800C9F80000D9F84A
:100BD000000000F00700404523D12068410705D5FB
:100BE000E1681A6822F4E06211431960000706D533
:100BF0002069196821F4605141EAC00018601C4660
:100C000000F026F82168094AC1F30311515CC8407D
:100C1000EE49086006480068FFF704FF0020BDE8C1
:100C2000F8830120BDE8F883002002408A200008F4
:100C300004000020E548134900680968034AC1F32D
:100C40000221515CC8407047080000209A2000082B
:100C500010B50C490C480A6802F00C03082B07D1A8
:100C6000C2F3834309A4E35CD20302D40C48584383
:100C700010BD096809A2C1F34041515C5843B0FB63
:100C8000F1F010BD0410024000127A0002030405C6
:100C9000060708090A0B0C0D0E0F101001020000C8
:100CA00000093D002DE9FC41002800F0CC800446FD
:100CB0000078C44EC0074AD0706800F00C000428C9
:100CC00017D0706800F00C00082802D17068C003CB
:100CD0000FD4606898B1B0F5803F06D03168B0F5A8
:100CE000A02F21D141F480203060306840F4803062
:100CF00020E0306880032AD5606840BBA3E03068FC
:100D000020F480303060306820F480203060FFF7BD
:100D1000A3FB05463068800319D5FFF79DFB411BF7
:100D200003206429F6D94AE121F48030306030682C
:100D300020F480203060FFF78FFB05463068800389
:100D400005D4FFF789FB401B6428F7D90AE1207816
:100D500080072CD5706810F00C0F07D0706800F079
:100D60000C00082809D17068C00306D430688007D9
:100D700016D52069012813D065E021699248002921
:100D800000F0B58001210160FFF766FB0546306881
:100D9000800705D4FFF760FB401B0228F7D9E1E08C
:100DA0006069316821F0F80141EAC00030602078C4
:100DB00000072ED5A06978B183480121C0F88014BE
:100DC000FFF74AFB0546706A800715D4FFF744FB1E
:100DD000401B0228F7D9C5E07B480021C0F88014E9
:100DE000FFF73AFB0546706A800712D5FFF734FB20
:100DF000401B0228F7D9B5E074484FF4FA51006857
:100E0000B0FBF1F0019000BF0198411E0028019154
:100E1000F9D12078400719D4E769002F00F0CE807F
:100E2000706800F00C00082843D1012F0BD0216A14
:100E3000706800F480328A4205D1616A00F4701053
:100E4000884200F0BB800120BDE8FC81F069C00051
:100E50000BD4F0694FF0010840F08050F061F06968
:100E600000F080500090009801E04FF00008584FCB
:100E70003868C0050FD4386840F480703860FFF7D8
:100E8000EBFA05463868C00505D4FFF7E5FA401BC4
:100E90006428F7D966E0E068C8B3012805D0316A54
:100EA00005284BD141F004003062306A40F0010067
:100EB0004AE04549002088460866FFF7CDFA054616
:100EC000022F0AD147463068800157D5FFF7C4FA90
:100ED000411B03200229F6D971E0306880016DD5ED
:100EE000FFF7BAFA411B03200229F6D967E0002177
:100EF0000160FFF7B1FA0546306880077FF557AF0C
:100F0000FFF7AAFA411B03200229F5D957E0306AFE
:100F100020F001003062306A20F004003062FFF7F8
:100F20009BFA054641F28837306A80071DD5FFF7E6
:100F300093FA411B0320B942F6D940E021F00100A9
:100F40003062306A20F004003062FFF785FA05460F
:100F500041F28837306A800707D4FFF77DFA401BDB
:100F6000B842F7D90320BDE8FC81B8F1000F3FF487
:100F700053AFF06920F08050F0614DE7206AB0F582
:100F8000803F05D1A168726822F40032114371607C
:100F9000616A0843716821F474110843706001208C
:100FA0003866FFF759FA04463068800106D4FFF727
:100FB00053FA011B03200229F6D900E00020BDE806
:100FC000FC8100BF001002400000424208000020E7
:100FD00000700040411E0020B0EB116F1CBF0120CB
:100FE0007047044AF023516003490B700721906059
:100FF0001160704710E000E023ED00E0FEE70268BA
:10100000516949054FF000010FD56FF480635361BA
:101010002022016380F83D2080F83E1080F83C10CB
:10102000016C41F004010164012108467047000091
:101030002DE9FC4B044600680E460168DDF8289057
:1010400041F4806101600168DDF82C8041F4807119
:101050001D461746016020464FF0011100224B4605
:10106000CDF8008000F0EAF848B120680068C005BB
:1010700044BF4FF4007020640320BDE8FC8B20685F
:1010800006F0FE0B574EC0F810B0204631464A46D7
:10109000434600F01AF948BB002001902068424600
:1010A000416901918069494601900198204600F00C
:1010B0008FF998B9012D08D02068390A01612046BE
:1010C0004946424600F084F940B92068F9B201610E
:1010D00020464946424600F07BF950B1206C042876
:1010E00004D12068016841F4007101600120BDE86D
:1010F000FC8B2068002201684B4641F4807101603E
:1011000020464FF00111CDF8008000F097F800283C
:10111000ABD120684BF001010161204631464A46BF
:10112000434600F0D2F8002818BF0120BDE8FC8B30
:101130002DE9FE43044600680F4601680A9D41F40C
:1011400080710B9E99469046016020464FF0011138
:1011500000222B46009600F071F848B12068006824
:10116000C00544BF4FF4007020640320BDE8FE8337
:10117000206807F0FE0101611A4920462A463346DD
:1011800000F0A3F810B10120BDE8FE83002002901A
:10119000206832464169029180692946029002988E
:1011A000204600F015F940B1206C0428EBD12068EE
:1011B000016841F400710160E5E7B9F1010F0AD05F
:1011C00020684FEA1821016120462946324600F086
:1011D000FFF80028E8D120685FFA88F1016100205B
:1011E000BDE8FE8302000100F8B515460E46044630
:1011F0004F1C2068406940071ED42046FFF7FFFEC1
:10120000C0B9002FF5D0FFF727F916B1401BB04247
:10121000EFD9206840694007EBD4002020212063EB
:1012200084F83D1084F83E0084F83C00206C40F0C7
:10123000200020640120F8BD0020F8BD2DE9F04712
:10124000DDF820909846164604468FB201F47F05DB
:1012500003F1010A1820B5F5803F08BF142021686A
:1012600008583840C01BB0FA80F04009B04229D17C
:10127000BAF1000FEED0FFF7EFF8B8F1000F03D08E
:10128000A0EB09004045E5D91820B5F5803F08BF1F
:101290001420216808583840C01BB0FA80F040097B
:1012A000B042D7D100202021206384F83D1084F87B
:1012B0003E0084F83C00206C40F0200020640120B7
:1012C000BDE8F0870020BDE8F0872DE9F843984697
:1012D000914604468FB201F47F05561C2068B5F58F
:1012E000803F0CBF416981693940B94223D04169CF
:1012F000490523D4002EF1D0FFF7AEF8B9F1000F65
:1013000003D0A0EB08004845E8D92068B5F5803F38
:101310000CBF406980693840B842DFD000202021EE
:10132000206384F83D1084F83E0084F83C00206C73
:1013300040F0200015E00020BDE8F883016841F48A
:10134000007101606FF48061416100202021206301
:1013500084F83D1084F83E0084F83C00206C40F096
:10136000040020640120BDE8F88370B515460E46E0
:10137000044620684169490617D44169C90616D454
:10138000FFF76AF816B1401BB042F2D920684069F5
:101390004006EED400202021206384F83D1084F81C
:1013A0003E00206C40F020000CE0002070BD6FF08B
:1013B0001001416100202021206384F83D1084F851
:1013C0003E00206C2064002084F83C00012070BDA9
:1013D000F8B515460E4604464F1C206840690006C5
:1013E0001ED42046FFF70BFEC0B9002FF5D0FFF743
:1013F00033F816B1401BB042EFD9206840690006AF
:10140000EBD400202021206384F83D1084F83E00B6
:1014100084F83C00206C40F0200020640120F8BDDE
:101420000020F8BD2DE9F04385B001260DF1130031
:10143000CDE90006CE484FF47A75D02175220123FC
:101440000295FFF7CBF89DF8130068282FD1C84C00
:10145000DFF860904FF000080DF112072046D02110
:101460006B2201238DF81280CDE900760295C847E2
:1014700007208DF812002046D02119220123CDE942
:1014800000760295C8472046D0211C2201238DF802
:101490001280CDE900760295C8472046D0211B2254
:1014A00001238DF81280CDE900760295C84705B07A
:1014B000BDE8F08371080008F0B585B0642006210E
:1014C0000DF10E02CDE900210290A948D0213B2266
:1014D0000123FFF783F8BDF80E60A84D30BABDF8C0
:1014E0001070000C288038BA000C6880BDF812001B
:1014F00001BA090CC0BAA98000F0CCFA0E4C002247
:10150000234600F0DFFA00F03BF96861F8BA00F01A
:10151000C1FA0022234600F0D5FA00F031F9286123
:10152000F0BA00F0B7FA0022234600F0CBFA00F040
:1015300027F9E86005B0F0BD0000103FF0B585B0B8
:10154000642006210DF10E02CDE9002102908848A9
:10155000D02143220123FFF741F8BDF80E60874DEB
:1015600030BABDF81070000CE88038BA000C288141
:10157000BDF8120001BA090CC0BA698100F08AFAFC
:101580000E4C0022234600F02DF900F0F9F82862F5
:10159000F8BA00F07FFA0022234600F023F900F0A9
:1015A000EFF8E861F0BA00F075FA0022234600F087
:1015B00019F900F0E5F8A86105B0F0BD00606040E1
:1015C000F8B5FFF7BBFF6D4F40F6B836A6B1FFF791
:1015D000B5FF07F1180531CD796A00F071FB78622B
:1015E000B96A204600F06CFBB862F96A284600F040
:1015F00067FBF862013EE9E707F12405084E31CDAB
:10160000314600F0BFFB38632046314600F0BAFB9C
:1016100078632846314600F0B5FBB863F8BD00BFDB
:1016200000803B45FEE7FEE770477047FFF7E0B9F3
:10163000B0B590B0002401A81421CDE90B44CDE948
:101640000944FEF7C1FD4FF4E0100F904FF48030D5
:10165000022501210E900D950A910894CDE90610FE
:1016600006A8FFF71FFB18B1EFF3108072B6FEE774
:101670004FF480600594CDE903400F20CDE90105CA
:1016800001A80221FFF738FA18B1EFF3108072B603
:10169000FEE710B0B0BD7047FEE7000010B5074C84
:1016A00000F00F032344044AB0F1FF3FC8BF831882
:1016B0000801187010BD00BF00E400E014ED00E068
:1016C00084B0FFF79FF9FFF7B3FF284800220168B5
:1016D000284B41F0200101600168274C01F02001F6
:1016E00003910399016841F004010160016801F070
:1016F000040102910299016841F00801016001684A
:101700001B4801F008010262019101994FF48041E8
:10171000C0E90043C0E90222C0E90412C0E9062280
:10172000FEF7A0FE18B1EFF3108072B6FEE7FFF7E8
:1017300079FEFFF745FF114EFFF7BEFEFFF7FEFEF5
:1017400006F1180531CD316B00F02AFCB061716BE8
:10175000204600F025FCF061B16B284600F020FC2B
:1017600030620220FEF796FDE6E700BF1810024047
:10177000AC000020A0860100005400407000002052
:1017800021F0004201F00043A2F16052B2F5801F47
:1017900028BFD2F17F6C0BD95FEA001C43EAC2027A
:1017A00042EB507018BF704728BF20F0010070470F
:1017B000B2F5801FBCBF184670474FEA410C1CF5BC
:1017C000001F02D2084600F0E5BB70B500F024FA15
:1017D00000000089FFF7F6BF4FF00040A0F5800041
:1017E000704700002DE9C04130B4DFF8A0C23CEAE8
:1017F000111418BF3CEA131400F0EC801CEA111419
:1018000081EA030544EAD57418BF1CEA131500F0F9
:10181000C780A4EB050404F17F7404F500344FF095
:10182000004545EAC12145EAC32341EA505143EA54
:1018300052534FEAC0204FEAC222994208BF904259
:1018400000F09C804FEA13650FF24016765D4FEA78
:10185000134506FB05F7C7F1807706FB07F74FEA4C
:10186000D737A7FB03687642A7FB06CEC8F58038BA
:1018700038BFA8F1010807FB08E6A6FB028C4FF071
:10188000000EE6FB03CEDCF1000CCEF1004E38BFBB
:10189000AEF1010EA6FB0C584FF00007E6FB0E87D9
:1018A000A1FB08C6A0FB07CE16EB0E064FF0000505
:1018B00045F10005E1FB076515F1E04E7EBFA4F59B
:1018C00080345FEA46066D4116F1800745F1000558
:1018D0004FEA172747EA05674FEA15254FEA0666DC
:1018E000A6F1DE46B6F1805F1FD9384605EBC4711C
:1018F00024F0010C01EB0C11BCF1FE6F02D8F0BC1E
:10190000BDE8008124425CBF01F5801E9EEAC47FD1
:1019100002D4F0BCBDE80081244238D4A1F1C0411A
:10192000F0BCBDE8004100F0C5B94FEAD02040EA64
:1019300041504FEAD1214FEAD22242EA43524FEAC4
:10194000D323A7FB028607FB036605FB02661EEA9C
:101950000E0F58BFA6EB0056B6EB00564FEA520EDC
:101960004EEAC37E18EB0E0E56EB530EBDD518EBA8
:1019700002085E417F1C55F10005B6E74FF4801563
:101980004FF000074FF000064FF00008ADE701F1FF
:10199000C04101F000414FF00000F0BCBDE8008103
:1019A0000CEA131511EA0C1F00D00CE013EA0C1F0F
:1019B00000F025804FF0000081EA030101F00041B2
:1019C000F0BCBDE80081F0BCBDE8004181EA030144
:1019D00000F070B9F0BCBDE8004170B500F01CF932
:1019E000097EFC3E00F007B84FF0000081EA0301D9
:1019F00001F00041704781EA030100F05BB9F0BCDF
:101A0000BDE8004122494FF000007047FFFDFBF99F
:101A1000F7F5F4F2F0EEEDEBE9E8E6E4E3E1E0DE21
:101A2000DDDBDAD8D7D5D4D3D1D0CFCDCCCBCAC893
:101A3000C7C6C5C4C2C1C0BFBEBDBCBBBAB9B8B7BA
:101A4000B6B5B4B3B2B1B0AFAEADACABAAA9A8A8AD
:101A5000A7A6A5A4A3A3A2A1A09F9F9E9D9C9C9B7B
:101A60009A99999897979695959493939291919026
:101A70008F8F8E8E8D8C8C8B8B8A898988888787B7
:101A80008685858484838382828181800000FF072C
:101A90000000F87F10F0004248BF4042B0FA80F3E7
:101AA00010FA03F10AD0C3F11D0303F5806302EBC2
:101AB00003524FEA415002EBD12170474FF0000032
:101AC0007047000070B5DFF848C11CEA111E1EBF48
:101AD0001CEA13159EEA0C0F95EA0C0F00F06F80BC
:101AE00081EA03044EEAD47EAE4421EA4C1123EA93
:101AF0004C1341F4801143F48013AEF17F7EA1FBBF
:101B0000024CA0FB0365361955EB0C05A1FB034CF9
:101B10004CF10003A0FB021C16EB0C06654153F1CF
:101B20000003094218BF46F0010613F4007F0BD1F1
:101B30004FEA03314FEA053041EA155140EA1650A9
:101B400034036FF003020AE04FEAC3214FEAC520D5
:101B500041EA555140EA5650F4026FF0020202EB9E
:101B60002E4201EB025585EACE710AD05FEA440CA1
:101B700018BF24F0004450F1000041F1000120EAB8
:101B8000D47040F2FE7C624500D270BDA84214BF02
:101B90004FF080444FF04044002E08BF0024BEF1B7
:101BA000806FA8BFA1F1C041BDE8704080F2828083
:101BB00001F1C04101F000414FF0000070470CEA14
:101BC00013159EEA0C0F18BF95EA0C0F06D081EA98
:101BD000030E4FF000000EF0004170BD00F01CF845
:101BE0008900013E00F007B800F009B84FEA430C45
:101BF0005FEA5C5C08D081EA030100F05BB84FEA61
:101C0000410C5FEA5C5CF6D102494FF0000070477E
:101C10000000FF070000F87F0EF1020E2EF0030E09
:101C20005EF8046B364205D4012A43EB030515F533
:101C3000001F12D8012841EB010C1CF5001F0CD825
:101C40000ED14FEAD17C0CEB4C0C0CF1020C15F5CB
:101C5000001F08BF4CEBD37C04E04FF0080C01E000
:101C60004FEAD37C0CEB4C0526FA05F606F0070686
:101C7000B6F1040C06D20EEB860CBDE870404CF0B9
:101C8000010C6047DFE80CF0090B02024FF0004145
:101C9000A1F500214FF0000070BD19461046012843
:101CA00051EB010418BFD4F5001484BF002001F0EB
:101CB000004170BD0808A0F500114FEA31017047DE
:101CC00090EA010F48BF81F0004100F17081421A93
:101CD0003CBF801A89184FEAD052A2EBD1534FF083
:101CE0007F4C1CEA410F18BF9CEA026F00F03B805A
:101CF0004FF0004C4CEA00204CEA012121FA03FC91
:101D000010EB0C0C1ED202F1FF325FEA1C2040EBFC
:101D1000C25038BF70471CF07F0F4FEA400C18BF0D
:101D2000BCF17F4F38BF7047C3F12003994008BF13
:101D300020F00100BCF17F4F38BF7047A0F1C040D8
:101D400000F028B94FEA3C00000A40EBC25028BF1F
:101D50001CF0FF0F4FEA400CE6D018BFBCF17F4FDC
:101D600038BF7047EAE79CEA026F05D010EA5C0FC3
:101D700008BF00F00040704710B500F0C5F800BF84
:101D800064FBBE3E4FF47F0C1CEAD0121EBF1CEA5F
:101D9000D11392EA0C0F93EA0C0F00F0858090EAC1
:101DA000010F48BF42F4807240F4000C41F400007F
:101DB0002CF07F4120F07F4000B5A2EB030281426E
:101DC0000FF2081CACEB504E9EF800E0C0F1000092
:101DD0004FEA4E0E00FB0EFC38BF49004FEA2C1CA8
:101DE0000CFB0EF34FEACE1E0EEB635E4FEA112C96
:101DF0000EFB0CFC4FEAC1214FEA1C5300FB031100
:101E000002F5FA024FEA112C0EFB0CFC4FEA0131ED
:101E10004FEADC4C00FB0C1142EB2242C14228BFCE
:101E200009184CEB03335DF804EB10EB410143EB75
:101E3000C250B2F57C0F38BF704729D512F0F00FB1
:101E40001CBF00F1C04000F0004070470081828359
:101E50008485868788898B8C8D8E8F9192939596B9
:101E600097999A9C9D9FA0A2A3A5A7A8AAACAEB043
:101E7000B2B3B5B7B9BCBEC0C2C5C7C9CCCED1D448
:101E8000D7D9DCDFE2E6E9ECF0F3F7FAFE00000078
:101E90004FEA400C0CF1807CBCF17E4F28BF7047AC
:101EA000B0F1C04000F076B80CEAD11390EA010F0F
:101EB00048BF42F48072624538BF634507D213F4CD
:101EC0007F0F16D080EA010000F00040704710B587
:101ED00000F01AF8097EFC3E00F005B880EA010027
:101EE00000F00040704780EA010000F0004000F080
:101EF00051B812F47F0F04BF0248704780EA010016
:101F000000F048B80000C07F0EF1020E2EF0030E64
:101F10005EF8044B244204D44FEA4102B2F17F4FF1
:101F200011D84FEA4003B3F17F4F0CD80ED14FEADE
:101F3000D07C0CEB4C0C0CF1020CB2F17F4F08BFC3
:101F40004CEBD17C04E04FF0080C01E04FEAD17C6F
:101F50000CEB4C0324FA03F404F00704B4F1040C72
:101F600006D20EEB840CBDE810404CF0010C60472B
:101F7000DFE80CF0070802024FF00040A0F58000F7
:101F800010BD0846420018BFD2F1807288BF00F031
:101F9000004010BDFF2141EAD050C005704700004D
:101FA00090EA010F48BF81F000413FF590AE421A20
:101FB00004D882F00042A0EB020011444FEAD05254
:101FC000A2EBD1534FF07F4C1CEA410F18BF9CEAA3
:101FD000026F4AD04FF0004C4CEA00204CEA01213D
:101FE00021FA03FCB0EB0C0C0FD412F0FE0F36D02C
:101FF0005FEA4C001DD5001240EBC25038BF70475D
:102000001CF03F0F18BF70470BE05FEA1C20A2F1E5
:10201000010240EBC25038BF70471CF07F0F18BF61
:102020007047C3F12003994014BF401E20F0010007
:1020300070474FEA1223800808BF7047B0FA80FC4F
:10204000A2EB0C02CCF1280C60FA0CF093EA122FF0
:1020500004BF00EBC25070474FEAC3707047130AC9
:102060005FEADC1008BF7047F6E79CEA026F04D015
:1020700010EA5C0F08BF0020704710B5FFF744FF5F
:1020800040DFF63E81F00040704700000000000095
:102090000000010203040607080900000000010215
:1020A00003040000C8200008000000201000000009
:1020B00028010008D820000810000020F8060000C1
:1020C00044010008000000000100000010000000B2
:0820D0000024F40000000000F0
:04000005080000ED02
:00000001FF
